{
  "address": "0x6aF72BB522b2D6499175A84bCF9d8d07F5f72896",
  "abi": [
    {
      "inputs": [],
      "stateMutability": "nonpayable",
      "type": "constructor"
    },
    {
      "anonymous": false,
      "inputs": [
        {
          "indexed": true,
          "internalType": "address",
          "name": "account",
          "type": "address"
        },
        {
          "indexed": true,
          "internalType": "address",
          "name": "operator",
          "type": "address"
        },
        {
          "indexed": false,
          "internalType": "bool",
          "name": "approved",
          "type": "bool"
        }
      ],
      "name": "ApprovalForAll",
      "type": "event"
    },
    {
      "anonymous": false,
      "inputs": [
        {
          "indexed": false,
          "internalType": "address",
          "name": "account",
          "type": "address"
        }
      ],
      "name": "Paused",
      "type": "event"
    },
    {
      "anonymous": false,
      "inputs": [
        {
          "indexed": true,
          "internalType": "bytes32",
          "name": "role",
          "type": "bytes32"
        },
        {
          "indexed": true,
          "internalType": "bytes32",
          "name": "previousAdminRole",
          "type": "bytes32"
        },
        {
          "indexed": true,
          "internalType": "bytes32",
          "name": "newAdminRole",
          "type": "bytes32"
        }
      ],
      "name": "RoleAdminChanged",
      "type": "event"
    },
    {
      "anonymous": false,
      "inputs": [
        {
          "indexed": true,
          "internalType": "bytes32",
          "name": "role",
          "type": "bytes32"
        },
        {
          "indexed": true,
          "internalType": "address",
          "name": "account",
          "type": "address"
        },
        {
          "indexed": true,
          "internalType": "address",
          "name": "sender",
          "type": "address"
        }
      ],
      "name": "RoleGranted",
      "type": "event"
    },
    {
      "anonymous": false,
      "inputs": [
        {
          "indexed": true,
          "internalType": "bytes32",
          "name": "role",
          "type": "bytes32"
        },
        {
          "indexed": true,
          "internalType": "address",
          "name": "account",
          "type": "address"
        },
        {
          "indexed": true,
          "internalType": "address",
          "name": "sender",
          "type": "address"
        }
      ],
      "name": "RoleRevoked",
      "type": "event"
    },
    {
      "anonymous": false,
      "inputs": [
        {
          "indexed": true,
          "internalType": "address",
          "name": "operator",
          "type": "address"
        },
        {
          "indexed": true,
          "internalType": "address",
          "name": "from",
          "type": "address"
        },
        {
          "indexed": true,
          "internalType": "address",
          "name": "to",
          "type": "address"
        },
        {
          "indexed": false,
          "internalType": "uint256[]",
          "name": "ids",
          "type": "uint256[]"
        },
        {
          "indexed": false,
          "internalType": "uint256[]",
          "name": "values",
          "type": "uint256[]"
        }
      ],
      "name": "TransferBatch",
      "type": "event"
    },
    {
      "anonymous": false,
      "inputs": [
        {
          "indexed": true,
          "internalType": "address",
          "name": "operator",
          "type": "address"
        },
        {
          "indexed": true,
          "internalType": "address",
          "name": "from",
          "type": "address"
        },
        {
          "indexed": true,
          "internalType": "address",
          "name": "to",
          "type": "address"
        },
        {
          "indexed": false,
          "internalType": "uint256",
          "name": "id",
          "type": "uint256"
        },
        {
          "indexed": false,
          "internalType": "uint256",
          "name": "value",
          "type": "uint256"
        }
      ],
      "name": "TransferSingle",
      "type": "event"
    },
    {
      "anonymous": false,
      "inputs": [
        {
          "indexed": false,
          "internalType": "string",
          "name": "value",
          "type": "string"
        },
        {
          "indexed": true,
          "internalType": "uint256",
          "name": "id",
          "type": "uint256"
        }
      ],
      "name": "URI",
      "type": "event"
    },
    {
      "anonymous": false,
      "inputs": [
        {
          "indexed": false,
          "internalType": "address",
          "name": "account",
          "type": "address"
        }
      ],
      "name": "Unpaused",
      "type": "event"
    },
    {
      "inputs": [],
      "name": "DEFAULT_ADMIN_ROLE",
      "outputs": [
        {
          "internalType": "bytes32",
          "name": "",
          "type": "bytes32"
        }
      ],
      "stateMutability": "view",
      "type": "function"
    },
    {
      "inputs": [],
      "name": "MINTER_ROLE",
      "outputs": [
        {
          "internalType": "bytes32",
          "name": "",
          "type": "bytes32"
        }
      ],
      "stateMutability": "view",
      "type": "function"
    },
    {
      "inputs": [],
      "name": "PAUSER_ROLE",
      "outputs": [
        {
          "internalType": "bytes32",
          "name": "",
          "type": "bytes32"
        }
      ],
      "stateMutability": "view",
      "type": "function"
    },
    {
      "inputs": [],
      "name": "URI_SETTER_ROLE",
      "outputs": [
        {
          "internalType": "bytes32",
          "name": "",
          "type": "bytes32"
        }
      ],
      "stateMutability": "view",
      "type": "function"
    },
    {
      "inputs": [
        {
          "internalType": "address",
          "name": "account",
          "type": "address"
        },
        {
          "internalType": "uint256",
          "name": "id",
          "type": "uint256"
        }
      ],
      "name": "balanceOf",
      "outputs": [
        {
          "internalType": "uint256",
          "name": "",
          "type": "uint256"
        }
      ],
      "stateMutability": "view",
      "type": "function"
    },
    {
      "inputs": [
        {
          "internalType": "address[]",
          "name": "accounts",
          "type": "address[]"
        },
        {
          "internalType": "uint256[]",
          "name": "ids",
          "type": "uint256[]"
        }
      ],
      "name": "balanceOfBatch",
      "outputs": [
        {
          "internalType": "uint256[]",
          "name": "",
          "type": "uint256[]"
        }
      ],
      "stateMutability": "view",
      "type": "function"
    },
    {
      "inputs": [
        {
          "internalType": "address",
          "name": "account",
          "type": "address"
        },
        {
          "internalType": "uint256",
          "name": "id",
          "type": "uint256"
        },
        {
          "internalType": "uint256",
          "name": "value",
          "type": "uint256"
        }
      ],
      "name": "burn",
      "outputs": [],
      "stateMutability": "nonpayable",
      "type": "function"
    },
    {
      "inputs": [
        {
          "internalType": "address",
          "name": "account",
          "type": "address"
        },
        {
          "internalType": "uint256[]",
          "name": "ids",
          "type": "uint256[]"
        },
        {
          "internalType": "uint256[]",
          "name": "values",
          "type": "uint256[]"
        }
      ],
      "name": "burnBatch",
      "outputs": [],
      "stateMutability": "nonpayable",
      "type": "function"
    },
    {
      "inputs": [
        {
          "internalType": "uint256",
          "name": "id",
          "type": "uint256"
        }
      ],
      "name": "exists",
      "outputs": [
        {
          "internalType": "bool",
          "name": "",
          "type": "bool"
        }
      ],
      "stateMutability": "view",
      "type": "function"
    },
    {
      "inputs": [
        {
          "internalType": "bytes32",
          "name": "role",
          "type": "bytes32"
        }
      ],
      "name": "getRoleAdmin",
      "outputs": [
        {
          "internalType": "bytes32",
          "name": "",
          "type": "bytes32"
        }
      ],
      "stateMutability": "view",
      "type": "function"
    },
    {
      "inputs": [
        {
          "internalType": "bytes32",
          "name": "role",
          "type": "bytes32"
        },
        {
          "internalType": "address",
          "name": "account",
          "type": "address"
        }
      ],
      "name": "grantRole",
      "outputs": [],
      "stateMutability": "nonpayable",
      "type": "function"
    },
    {
      "inputs": [
        {
          "internalType": "bytes32",
          "name": "role",
          "type": "bytes32"
        },
        {
          "internalType": "address",
          "name": "account",
          "type": "address"
        }
      ],
      "name": "hasRole",
      "outputs": [
        {
          "internalType": "bool",
          "name": "",
          "type": "bool"
        }
      ],
      "stateMutability": "view",
      "type": "function"
    },
    {
      "inputs": [
        {
          "internalType": "address",
          "name": "account",
          "type": "address"
        },
        {
          "internalType": "address",
          "name": "operator",
          "type": "address"
        }
      ],
      "name": "isApprovedForAll",
      "outputs": [
        {
          "internalType": "bool",
          "name": "",
          "type": "bool"
        }
      ],
      "stateMutability": "view",
      "type": "function"
    },
    {
      "inputs": [
        {
          "internalType": "address",
          "name": "account",
          "type": "address"
        },
        {
          "internalType": "uint256",
          "name": "id",
          "type": "uint256"
        },
        {
          "internalType": "uint256",
          "name": "amount",
          "type": "uint256"
        },
        {
          "internalType": "bytes",
          "name": "data",
          "type": "bytes"
        }
      ],
      "name": "mint",
      "outputs": [],
      "stateMutability": "nonpayable",
      "type": "function"
    },
    {
      "inputs": [
        {
          "internalType": "address",
          "name": "to",
          "type": "address"
        },
        {
          "internalType": "uint256[]",
          "name": "ids",
          "type": "uint256[]"
        },
        {
          "internalType": "uint256[]",
          "name": "amounts",
          "type": "uint256[]"
        },
        {
          "internalType": "bytes",
          "name": "data",
          "type": "bytes"
        }
      ],
      "name": "mintBatch",
      "outputs": [],
      "stateMutability": "nonpayable",
      "type": "function"
    },
    {
      "inputs": [],
      "name": "pause",
      "outputs": [],
      "stateMutability": "nonpayable",
      "type": "function"
    },
    {
      "inputs": [],
      "name": "paused",
      "outputs": [
        {
          "internalType": "bool",
          "name": "",
          "type": "bool"
        }
      ],
      "stateMutability": "view",
      "type": "function"
    },
    {
      "inputs": [
        {
          "internalType": "bytes32",
          "name": "role",
          "type": "bytes32"
        },
        {
          "internalType": "address",
          "name": "account",
          "type": "address"
        }
      ],
      "name": "renounceRole",
      "outputs": [],
      "stateMutability": "nonpayable",
      "type": "function"
    },
    {
      "inputs": [
        {
          "internalType": "bytes32",
          "name": "role",
          "type": "bytes32"
        },
        {
          "internalType": "address",
          "name": "account",
          "type": "address"
        }
      ],
      "name": "revokeRole",
      "outputs": [],
      "stateMutability": "nonpayable",
      "type": "function"
    },
    {
      "inputs": [
        {
          "internalType": "address",
          "name": "from",
          "type": "address"
        },
        {
          "internalType": "address",
          "name": "to",
          "type": "address"
        },
        {
          "internalType": "uint256[]",
          "name": "ids",
          "type": "uint256[]"
        },
        {
          "internalType": "uint256[]",
          "name": "amounts",
          "type": "uint256[]"
        },
        {
          "internalType": "bytes",
          "name": "data",
          "type": "bytes"
        }
      ],
      "name": "safeBatchTransferFrom",
      "outputs": [],
      "stateMutability": "nonpayable",
      "type": "function"
    },
    {
      "inputs": [
        {
          "internalType": "address",
          "name": "from",
          "type": "address"
        },
        {
          "internalType": "address",
          "name": "to",
          "type": "address"
        },
        {
          "internalType": "uint256",
          "name": "id",
          "type": "uint256"
        },
        {
          "internalType": "uint256",
          "name": "amount",
          "type": "uint256"
        },
        {
          "internalType": "bytes",
          "name": "data",
          "type": "bytes"
        }
      ],
      "name": "safeTransferFrom",
      "outputs": [],
      "stateMutability": "nonpayable",
      "type": "function"
    },
    {
      "inputs": [
        {
          "internalType": "address",
          "name": "operator",
          "type": "address"
        },
        {
          "internalType": "bool",
          "name": "approved",
          "type": "bool"
        }
      ],
      "name": "setApprovalForAll",
      "outputs": [],
      "stateMutability": "nonpayable",
      "type": "function"
    },
    {
      "inputs": [
        {
          "internalType": "string",
          "name": "newuri",
          "type": "string"
        }
      ],
      "name": "setURI",
      "outputs": [],
      "stateMutability": "nonpayable",
      "type": "function"
    },
    {
      "inputs": [
        {
          "internalType": "bytes4",
          "name": "interfaceId",
          "type": "bytes4"
        }
      ],
      "name": "supportsInterface",
      "outputs": [
        {
          "internalType": "bool",
          "name": "",
          "type": "bool"
        }
      ],
      "stateMutability": "view",
      "type": "function"
    },
    {
      "inputs": [
        {
          "internalType": "uint256",
          "name": "id",
          "type": "uint256"
        }
      ],
      "name": "totalSupply",
      "outputs": [
        {
          "internalType": "uint256",
          "name": "",
          "type": "uint256"
        }
      ],
      "stateMutability": "view",
      "type": "function"
    },
    {
      "inputs": [],
      "name": "unpause",
      "outputs": [],
      "stateMutability": "nonpayable",
      "type": "function"
    },
    {
      "inputs": [
        {
          "internalType": "uint256",
          "name": "",
          "type": "uint256"
        }
      ],
      "name": "uri",
      "outputs": [
        {
          "internalType": "string",
          "name": "",
          "type": "string"
        }
      ],
      "stateMutability": "view",
      "type": "function"
    }
  ],
  "transactionHash": "0x15d87f195f88383664ee7d1bac18575c3c2bdee0b22600698d688807108e8c59",
  "args": [],
  "numDeployments": 1,
  "solcInputHash": "55aa3e81d4857f3d59c8a2cbca385cf2",
  "bytecode": "0x60806040523480156200001157600080fd5b506040518060400160405280600781526020017f697066733a2f2f0000000000000000000000000000000000000000000000000081525062000059816200012660201b60201c565b506000600460006101000a81548160ff0219169083151502179055506200008a6000801b336200014260201b60201c565b620000bc7f7804d923f43a17d325d77e781528e0793b2edd9890ab45fc64efd7b4b427744c336200014260201b60201c565b620000ee7f65d7a28e3265b37a6474929f336521b332c1681b933f6cb9f3376673440d862a336200014260201b60201c565b620001207f9f2df0fed2c77648de5860a4cc508cd0818c85b8b8a1ab4ceeef8d981c8956a6336200014260201b60201c565b620003bc565b80600290805190602001906200013e929190620002a7565b5050565b6200015482826200023460201b60201c565b620002305760016003600084815260200190815260200160002060000160008373ffffffffffffffffffffffffffffffffffffffff1673ffffffffffffffffffffffffffffffffffffffff16815260200190815260200160002060006101000a81548160ff021916908315150217905550620001d56200029f60201b60201c565b73ffffffffffffffffffffffffffffffffffffffff168173ffffffffffffffffffffffffffffffffffffffff16837f2f8788117e7eff1d82e926ec794901d17c78024a50270940304540a733656f0d60405160405180910390a45b5050565b60006003600084815260200190815260200160002060000160008373ffffffffffffffffffffffffffffffffffffffff1673ffffffffffffffffffffffffffffffffffffffff16815260200190815260200160002060009054906101000a900460ff16905092915050565b600033905090565b828054620002b59062000386565b90600052602060002090601f016020900481019282620002d9576000855562000325565b82601f10620002f457805160ff191683800117855562000325565b8280016001018555821562000325579182015b828111156200032457825182559160200191906001019062000307565b5b50905062000334919062000338565b5090565b5b808211156200035357600081600090555060010162000339565b5090565b7f4e487b7100000000000000000000000000000000000000000000000000000000600052602260045260246000fd5b600060028204905060018216806200039f57607f821691505b60208210811415620003b657620003b562000357565b5b50919050565b61490280620003cc6000396000f3fe608060405234801561001057600080fd5b50600436106101a85760003560e01c80636b20c454116100f9578063bd85b03911610097578063e63ab1e911610071578063e63ab1e9146104b5578063e985e9c5146104d3578063f242432a14610503578063f5298aca1461051f576101a8565b8063bd85b0391461044b578063d53913931461047b578063d547741f14610499576101a8565b80638456cb59116100d35780638456cb59146103d757806391d14854146103e1578063a217fddf14610411578063a22cb4651461042f576101a8565b80636b20c45414610381578063731133e91461039d5780637f345710146103b9576101a8565b80632eb2c2d6116101665780633f4ba83a116101405780633f4ba83a146102f95780634e1273f4146103035780634f558e79146103335780635c975abb14610363576101a8565b80632eb2c2d6146102a55780632f2ff15d146102c157806336568abe146102dd576101a8565b8062fdd58e146101ad57806301ffc9a7146101dd57806302fe53051461020d5780630e89341c146102295780631f7fdffa14610259578063248a9ca314610275575b600080fd5b6101c760048036038101906101c29190612dea565b61053b565b6040516101d49190612e39565b60405180910390f35b6101f760048036038101906101f29190612eac565b610604565b6040516102049190612ef4565b60405180910390f35b61022760048036038101906102229190613055565b610616565b005b610243600480360381019061023e919061309e565b61064d565b6040516102509190613153565b60405180910390f35b610273600480360381019061026e91906132de565b6106e1565b005b61028f600480360381019061028a91906133cf565b61071e565b60405161029c919061340b565b60405180910390f35b6102bf60048036038101906102ba9190613426565b61073e565b005b6102db60048036038101906102d691906134f5565b6107df565b005b6102f760048036038101906102f291906134f5565b610800565b005b610301610883565b005b61031d600480360381019061031891906135f8565b6108b8565b60405161032a919061372e565b60405180910390f35b61034d6004803603810190610348919061309e565b6109d1565b60405161035a9190612ef4565b60405180910390f35b61036b6109e5565b6040516103789190612ef4565b60405180910390f35b61039b60048036038101906103969190613750565b6109fc565b005b6103b760048036038101906103b291906137db565b610a99565b005b6103c1610ad6565b6040516103ce919061340b565b60405180910390f35b6103df610afa565b005b6103fb60048036038101906103f691906134f5565b610b2f565b6040516104089190612ef4565b60405180910390f35b610419610b9a565b604051610426919061340b565b60405180910390f35b6104496004803603810190610444919061388a565b610ba1565b005b6104656004803603810190610460919061309e565b610bb7565b6040516104729190612e39565b60405180910390f35b610483610bd4565b604051610490919061340b565b60405180910390f35b6104b360048036038101906104ae91906134f5565b610bf8565b005b6104bd610c19565b6040516104ca919061340b565b60405180910390f35b6104ed60048036038101906104e891906138ca565b610c3d565b6040516104fa9190612ef4565b60405180910390f35b61051d6004803603810190610518919061390a565b610cd1565b005b610539600480360381019061053491906139a1565b610d72565b005b60008073ffffffffffffffffffffffffffffffffffffffff168373ffffffffffffffffffffffffffffffffffffffff1614156105ac576040517f08c379a00000000000000000000000000000000000000000000000000000000081526004016105a390613a66565b60405180910390fd5b60008083815260200190815260200160002060008473ffffffffffffffffffffffffffffffffffffffff1673ffffffffffffffffffffffffffffffffffffffff16815260200190815260200160002054905092915050565b600061060f82610e0f565b9050919050565b7f7804d923f43a17d325d77e781528e0793b2edd9890ab45fc64efd7b4b427744c61064081610e89565b61064982610e9d565b5050565b60606002805461065c90613ab5565b80601f016020809104026020016040519081016040528092919081815260200182805461068890613ab5565b80156106d55780601f106106aa576101008083540402835291602001916106d5565b820191906000526020600020905b8154815290600101906020018083116106b857829003601f168201915b50505050509050919050565b7f9f2df0fed2c77648de5860a4cc508cd0818c85b8b8a1ab4ceeef8d981c8956a661070b81610e89565b61071785858585610eb7565b5050505050565b600060036000838152602001908152602001600020600101549050919050565b6107466110e4565b73ffffffffffffffffffffffffffffffffffffffff168573ffffffffffffffffffffffffffffffffffffffff16148061078c575061078b856107866110e4565b610c3d565b5b6107cb576040517f08c379a00000000000000000000000000000000000000000000000000000000081526004016107c290613b59565b60405180910390fd5b6107d885858585856110ec565b5050505050565b6107e88261071e565b6107f181610e89565b6107fb838361140e565b505050565b6108086110e4565b73ffffffffffffffffffffffffffffffffffffffff168173ffffffffffffffffffffffffffffffffffffffff1614610875576040517f08c379a000000000000000000000000000000000000000000000000000000000815260040161086c90613beb565b60405180910390fd5b61087f82826114ef565b5050565b7f65d7a28e3265b37a6474929f336521b332c1681b933f6cb9f3376673440d862a6108ad81610e89565b6108b56115d1565b50565b606081518351146108fe576040517f08c379a00000000000000000000000000000000000000000000000000000000081526004016108f590613c7d565b60405180910390fd5b6000835167ffffffffffffffff81111561091b5761091a612f2a565b5b6040519080825280602002602001820160405280156109495781602001602082028036833780820191505090505b50905060005b84518110156109c65761099685828151811061096e5761096d613c9d565b5b602002602001015185838151811061098957610988613c9d565b5b602002602001015161053b565b8282815181106109a9576109a8613c9d565b5b602002602001018181525050806109bf90613cfb565b905061094f565b508091505092915050565b6000806109dd83610bb7565b119050919050565b6000600460009054906101000a900460ff16905090565b610a046110e4565b73ffffffffffffffffffffffffffffffffffffffff168373ffffffffffffffffffffffffffffffffffffffff161480610a4a5750610a4983610a446110e4565b610c3d565b5b610a89576040517f08c379a0000000000000000000000000000000000000000000000000000000008152600401610a8090613b59565b60405180910390fd5b610a94838383611634565b505050565b7f9f2df0fed2c77648de5860a4cc508cd0818c85b8b8a1ab4ceeef8d981c8956a6610ac381610e89565b610acf85858585611903565b5050505050565b7f7804d923f43a17d325d77e781528e0793b2edd9890ab45fc64efd7b4b427744c81565b7f65d7a28e3265b37a6474929f336521b332c1681b933f6cb9f3376673440d862a610b2481610e89565b610b2c611ab4565b50565b60006003600084815260200190815260200160002060000160008373ffffffffffffffffffffffffffffffffffffffff1673ffffffffffffffffffffffffffffffffffffffff16815260200190815260200160002060009054906101000a900460ff16905092915050565b6000801b81565b610bb3610bac6110e4565b8383611b17565b5050565b600060056000838152602001908152602001600020549050919050565b7f9f2df0fed2c77648de5860a4cc508cd0818c85b8b8a1ab4ceeef8d981c8956a681565b610c018261071e565b610c0a81610e89565b610c1483836114ef565b505050565b7f65d7a28e3265b37a6474929f336521b332c1681b933f6cb9f3376673440d862a81565b6000600160008473ffffffffffffffffffffffffffffffffffffffff1673ffffffffffffffffffffffffffffffffffffffff16815260200190815260200160002060008373ffffffffffffffffffffffffffffffffffffffff1673ffffffffffffffffffffffffffffffffffffffff16815260200190815260200160002060009054906101000a900460ff16905092915050565b610cd96110e4565b73ffffffffffffffffffffffffffffffffffffffff168573ffffffffffffffffffffffffffffffffffffffff161480610d1f5750610d1e85610d196110e4565b610c3d565b5b610d5e576040517f08c379a0000000000000000000000000000000000000000000000000000000008152600401610d5590613b59565b60405180910390fd5b610d6b8585858585611c84565b5050505050565b610d7a6110e4565b73ffffffffffffffffffffffffffffffffffffffff168373ffffffffffffffffffffffffffffffffffffffff161480610dc05750610dbf83610dba6110e4565b610c3d565b5b610dff576040517f08c379a0000000000000000000000000000000000000000000000000000000008152600401610df690613b59565b60405180910390fd5b610e0a838383611f20565b505050565b60007f7965db0b000000000000000000000000000000000000000000000000000000007bffffffffffffffffffffffffffffffffffffffffffffffffffffffff1916827bffffffffffffffffffffffffffffffffffffffffffffffffffffffff19161480610e825750610e8182612167565b5b9050919050565b610e9a81610e956110e4565b612249565b50565b8060029080519060200190610eb3929190612c9f565b5050565b600073ffffffffffffffffffffffffffffffffffffffff168473ffffffffffffffffffffffffffffffffffffffff161415610f27576040517f08c379a0000000000000000000000000000000000000000000000000000000008152600401610f1e90613db6565b60405180910390fd5b8151835114610f6b576040517f08c379a0000000000000000000000000000000000000000000000000000000008152600401610f6290613e48565b60405180910390fd5b6000610f756110e4565b9050610f86816000878787876122ce565b60005b845181101561103f57838181518110610fa557610fa4613c9d565b5b6020026020010151600080878481518110610fc357610fc2613c9d565b5b6020026020010151815260200190815260200160002060008873ffffffffffffffffffffffffffffffffffffffff1673ffffffffffffffffffffffffffffffffffffffff16815260200190815260200160002060008282546110259190613e68565b92505081905550808061103790613cfb565b915050610f89565b508473ffffffffffffffffffffffffffffffffffffffff16600073ffffffffffffffffffffffffffffffffffffffff168273ffffffffffffffffffffffffffffffffffffffff167f4a39dc06d4c0dbc64b70af90fd698a233a518aa5d07e595d983b8c0526c8f7fb87876040516110b7929190613ebe565b60405180910390a46110ce816000878787876122ec565b6110dd816000878787876122f4565b5050505050565b600033905090565b8151835114611130576040517f08c379a000000000000000000000000000000000000000000000000000000000815260040161112790613e48565b60405180910390fd5b600073ffffffffffffffffffffffffffffffffffffffff168473ffffffffffffffffffffffffffffffffffffffff1614156111a0576040517f08c379a000000000000000000000000000000000000000000000000000000000815260040161119790613f67565b60405180910390fd5b60006111aa6110e4565b90506111ba8187878787876122ce565b60005b845181101561136b5760008582815181106111db576111da613c9d565b5b6020026020010151905060008583815181106111fa576111f9613c9d565b5b60200260200101519050600080600084815260200190815260200160002060008b73ffffffffffffffffffffffffffffffffffffffff1673ffffffffffffffffffffffffffffffffffffffff1681526020019081526020016000205490508181101561129b576040517f08c379a000000000000000000000000000000000000000000000000000000000815260040161129290613ff9565b60405180910390fd5b81810360008085815260200190815260200160002060008c73ffffffffffffffffffffffffffffffffffffffff1673ffffffffffffffffffffffffffffffffffffffff168152602001908152602001600020819055508160008085815260200190815260200160002060008b73ffffffffffffffffffffffffffffffffffffffff1673ffffffffffffffffffffffffffffffffffffffff16815260200190815260200160002060008282546113509190613e68565b925050819055505050508061136490613cfb565b90506111bd565b508473ffffffffffffffffffffffffffffffffffffffff168673ffffffffffffffffffffffffffffffffffffffff168273ffffffffffffffffffffffffffffffffffffffff167f4a39dc06d4c0dbc64b70af90fd698a233a518aa5d07e595d983b8c0526c8f7fb87876040516113e2929190613ebe565b60405180910390a46113f88187878787876122ec565b6114068187878787876122f4565b505050505050565b6114188282610b2f565b6114eb5760016003600084815260200190815260200160002060000160008373ffffffffffffffffffffffffffffffffffffffff1673ffffffffffffffffffffffffffffffffffffffff16815260200190815260200160002060006101000a81548160ff0219169083151502179055506114906110e4565b73ffffffffffffffffffffffffffffffffffffffff168173ffffffffffffffffffffffffffffffffffffffff16837f2f8788117e7eff1d82e926ec794901d17c78024a50270940304540a733656f0d60405160405180910390a45b5050565b6114f98282610b2f565b156115cd5760006003600084815260200190815260200160002060000160008373ffffffffffffffffffffffffffffffffffffffff1673ffffffffffffffffffffffffffffffffffffffff16815260200190815260200160002060006101000a81548160ff0219169083151502179055506115726110e4565b73ffffffffffffffffffffffffffffffffffffffff168173ffffffffffffffffffffffffffffffffffffffff16837ff6391f5c32d9c69d2a47ea670b442974b53935d1edc7fd64eb21e047a839171b60405160405180910390a45b5050565b6115d96124db565b6000600460006101000a81548160ff0219169083151502179055507f5db9ee0a495bf2e6ff9c91a7834c1ba4fdd244a5e8aa4e537bd38aeae4b073aa61161d6110e4565b60405161162a9190614028565b60405180910390a1565b600073ffffffffffffffffffffffffffffffffffffffff168373ffffffffffffffffffffffffffffffffffffffff1614156116a4576040517f08c379a000000000000000000000000000000000000000000000000000000000815260040161169b906140b5565b60405180910390fd5b80518251146116e8576040517f08c379a00000000000000000000000000000000000000000000000000000000081526004016116df90613e48565b60405180910390fd5b60006116f26110e4565b9050611712818560008686604051806020016040528060008152506122ce565b60005b835181101561185f57600084828151811061173357611732613c9d565b5b60200260200101519050600084838151811061175257611751613c9d565b5b60200260200101519050600080600084815260200190815260200160002060008973ffffffffffffffffffffffffffffffffffffffff1673ffffffffffffffffffffffffffffffffffffffff168152602001908152602001600020549050818110156117f3576040517f08c379a00000000000000000000000000000000000000000000000000000000081526004016117ea90614147565b60405180910390fd5b81810360008085815260200190815260200160002060008a73ffffffffffffffffffffffffffffffffffffffff1673ffffffffffffffffffffffffffffffffffffffff16815260200190815260200160002081905550505050808061185790613cfb565b915050611715565b50600073ffffffffffffffffffffffffffffffffffffffff168473ffffffffffffffffffffffffffffffffffffffff168273ffffffffffffffffffffffffffffffffffffffff167f4a39dc06d4c0dbc64b70af90fd698a233a518aa5d07e595d983b8c0526c8f7fb86866040516118d7929190613ebe565b60405180910390a46118fd818560008686604051806020016040528060008152506122ec565b50505050565b600073ffffffffffffffffffffffffffffffffffffffff168473ffffffffffffffffffffffffffffffffffffffff161415611973576040517f08c379a000000000000000000000000000000000000000000000000000000000815260040161196a90613db6565b60405180910390fd5b600061197d6110e4565b9050600061198a85612524565b9050600061199785612524565b90506119a8836000898585896122ce565b8460008088815260200190815260200160002060008973ffffffffffffffffffffffffffffffffffffffff1673ffffffffffffffffffffffffffffffffffffffff1681526020019081526020016000206000828254611a079190613e68565b925050819055508673ffffffffffffffffffffffffffffffffffffffff16600073ffffffffffffffffffffffffffffffffffffffff168473ffffffffffffffffffffffffffffffffffffffff167fc3d58168c5ae7397731d063d5bbf3d657854427343f4c083240f7aacaa2d0f628989604051611a85929190614167565b60405180910390a4611a9c836000898585896122ec565b611aab8360008989898961259e565b50505050505050565b611abc612785565b6001600460006101000a81548160ff0219169083151502179055507f62e78cea01bee320cd4e420270b5ea74000d11b0c9f74754ebdbfc544b05a258611b006110e4565b604051611b0d9190614028565b60405180910390a1565b8173ffffffffffffffffffffffffffffffffffffffff168373ffffffffffffffffffffffffffffffffffffffff161415611b86576040517f08c379a0000000000000000000000000000000000000000000000000000000008152600401611b7d90614202565b60405180910390fd5b80600160008573ffffffffffffffffffffffffffffffffffffffff1673ffffffffffffffffffffffffffffffffffffffff16815260200190815260200160002060008473ffffffffffffffffffffffffffffffffffffffff1673ffffffffffffffffffffffffffffffffffffffff16815260200190815260200160002060006101000a81548160ff0219169083151502179055508173ffffffffffffffffffffffffffffffffffffffff168373ffffffffffffffffffffffffffffffffffffffff167f17307eab39ab6107e8899845ad3d59bd9653f200f220920489ca2b5937696c3183604051611c779190612ef4565b60405180910390a3505050565b600073ffffffffffffffffffffffffffffffffffffffff168473ffffffffffffffffffffffffffffffffffffffff161415611cf4576040517f08c379a0000000000000000000000000000000000000000000000000000000008152600401611ceb90613f67565b60405180910390fd5b6000611cfe6110e4565b90506000611d0b85612524565b90506000611d1885612524565b9050611d288389898585896122ce565b600080600088815260200190815260200160002060008a73ffffffffffffffffffffffffffffffffffffffff1673ffffffffffffffffffffffffffffffffffffffff16815260200190815260200160002054905085811015611dbf576040517f08c379a0000000000000000000000000000000000000000000000000000000008152600401611db690613ff9565b60405180910390fd5b85810360008089815260200190815260200160002060008b73ffffffffffffffffffffffffffffffffffffffff1673ffffffffffffffffffffffffffffffffffffffff168152602001908152602001600020819055508560008089815260200190815260200160002060008a73ffffffffffffffffffffffffffffffffffffffff1673ffffffffffffffffffffffffffffffffffffffff1681526020019081526020016000206000828254611e749190613e68565b925050819055508773ffffffffffffffffffffffffffffffffffffffff168973ffffffffffffffffffffffffffffffffffffffff168573ffffffffffffffffffffffffffffffffffffffff167fc3d58168c5ae7397731d063d5bbf3d657854427343f4c083240f7aacaa2d0f628a8a604051611ef1929190614167565b60405180910390a4611f07848a8a86868a6122ec565b611f15848a8a8a8a8a61259e565b505050505050505050565b600073ffffffffffffffffffffffffffffffffffffffff168373ffffffffffffffffffffffffffffffffffffffff161415611f90576040517f08c379a0000000000000000000000000000000000000000000000000000000008152600401611f87906140b5565b60405180910390fd5b6000611f9a6110e4565b90506000611fa784612524565b90506000611fb484612524565b9050611fd4838760008585604051806020016040528060008152506122ce565b600080600087815260200190815260200160002060008873ffffffffffffffffffffffffffffffffffffffff1673ffffffffffffffffffffffffffffffffffffffff1681526020019081526020016000205490508481101561206b576040517f08c379a000000000000000000000000000000000000000000000000000000000815260040161206290614147565b60405180910390fd5b84810360008088815260200190815260200160002060008973ffffffffffffffffffffffffffffffffffffffff1673ffffffffffffffffffffffffffffffffffffffff16815260200190815260200160002081905550600073ffffffffffffffffffffffffffffffffffffffff168773ffffffffffffffffffffffffffffffffffffffff168573ffffffffffffffffffffffffffffffffffffffff167fc3d58168c5ae7397731d063d5bbf3d657854427343f4c083240f7aacaa2d0f628989604051612138929190614167565b60405180910390a461215e848860008686604051806020016040528060008152506122ec565b50505050505050565b60007fd9b67a26000000000000000000000000000000000000000000000000000000007bffffffffffffffffffffffffffffffffffffffffffffffffffffffff1916827bffffffffffffffffffffffffffffffffffffffffffffffffffffffff1916148061223257507f0e89341c000000000000000000000000000000000000000000000000000000007bffffffffffffffffffffffffffffffffffffffffffffffffffffffff1916827bffffffffffffffffffffffffffffffffffffffffffffffffffffffff1916145b806122425750612241826127cf565b5b9050919050565b6122538282610b2f565b6122ca5761226081612839565b61226e8360001c6020612866565b60405160200161227f9291906142f6565b6040516020818303038152906040526040517f08c379a00000000000000000000000000000000000000000000000000000000081526004016122c19190613153565b60405180910390fd5b5050565b6122d6612785565b6122e4868686868686612aa2565b505050505050565b505050505050565b6123138473ffffffffffffffffffffffffffffffffffffffff16612c74565b156124d3578373ffffffffffffffffffffffffffffffffffffffff1663bc197c8187878686866040518663ffffffff1660e01b8152600401612359959493929190614385565b602060405180830381600087803b15801561237357600080fd5b505af19250505080156123a457506040513d601f19601f820116820180604052508101906123a19190614402565b60015b61244a576123b061443c565b806308c379a0141561240d57506123c561445e565b806123d0575061240f565b806040517f08c379a00000000000000000000000000000000000000000000000000000000081526004016124049190613153565b60405180910390fd5b505b6040517f08c379a000000000000000000000000000000000000000000000000000000000815260040161244190614566565b60405180910390fd5b63bc197c8160e01b7bffffffffffffffffffffffffffffffffffffffffffffffffffffffff1916817bffffffffffffffffffffffffffffffffffffffffffffffffffffffff1916146124d1576040517f08c379a00000000000000000000000000000000000000000000000000000000081526004016124c8906145f8565b60405180910390fd5b505b505050505050565b6124e36109e5565b612522576040517f08c379a000000000000000000000000000000000000000000000000000000000815260040161251990614664565b60405180910390fd5b565b60606000600167ffffffffffffffff81111561254357612542612f2a565b5b6040519080825280602002602001820160405280156125715781602001602082028036833780820191505090505b509050828160008151811061258957612588613c9d565b5b60200260200101818152505080915050919050565b6125bd8473ffffffffffffffffffffffffffffffffffffffff16612c74565b1561277d578373ffffffffffffffffffffffffffffffffffffffff1663f23a6e6187878686866040518663ffffffff1660e01b8152600401612603959493929190614684565b602060405180830381600087803b15801561261d57600080fd5b505af192505050801561264e57506040513d601f19601f8201168201806040525081019061264b9190614402565b60015b6126f45761265a61443c565b806308c379a014156126b7575061266f61445e565b8061267a57506126b9565b806040517f08c379a00000000000000000000000000000000000000000000000000000000081526004016126ae9190613153565b60405180910390fd5b505b6040517f08c379a00000000000000000000000000000000000000000000000000000000081526004016126eb90614566565b60405180910390fd5b63f23a6e6160e01b7bffffffffffffffffffffffffffffffffffffffffffffffffffffffff1916817bffffffffffffffffffffffffffffffffffffffffffffffffffffffff19161461277b576040517f08c379a0000000000000000000000000000000000000000000000000000000008152600401612772906145f8565b60405180910390fd5b505b505050505050565b61278d6109e5565b156127cd576040517f08c379a00000000000000000000000000000000000000000000000000000000081526004016127c49061472a565b60405180910390fd5b565b60007f01ffc9a7000000000000000000000000000000000000000000000000000000007bffffffffffffffffffffffffffffffffffffffffffffffffffffffff1916827bffffffffffffffffffffffffffffffffffffffffffffffffffffffff1916149050919050565b606061285f8273ffffffffffffffffffffffffffffffffffffffff16601460ff16612866565b9050919050565b606060006002836002612879919061474a565b6128839190613e68565b67ffffffffffffffff81111561289c5761289b612f2a565b5b6040519080825280601f01601f1916602001820160405280156128ce5781602001600182028036833780820191505090505b5090507f30000000000000000000000000000000000000000000000000000000000000008160008151811061290657612905613c9d565b5b60200101907effffffffffffffffffffffffffffffffffffffffffffffffffffffffffffff1916908160001a9053507f78000000000000000000000000000000000000000000000000000000000000008160018151811061296a57612969613c9d565b5b60200101907effffffffffffffffffffffffffffffffffffffffffffffffffffffffffffff1916908160001a905350600060018460026129aa919061474a565b6129b49190613e68565b90505b6001811115612a54577f3031323334353637383961626364656600000000000000000000000000000000600f8616601081106129f6576129f5613c9d565b5b1a60f81b828281518110612a0d57612a0c613c9d565b5b60200101907effffffffffffffffffffffffffffffffffffffffffffffffffffffffffffff1916908160001a905350600485901c945080612a4d906147a4565b90506129b7565b5060008414612a98576040517f08c379a0000000000000000000000000000000000000000000000000000000008152600401612a8f9061481a565b60405180910390fd5b8091505092915050565b612ab0868686868686612c97565b600073ffffffffffffffffffffffffffffffffffffffff168573ffffffffffffffffffffffffffffffffffffffff161415612b625760005b8351811015612b6057828181518110612b0457612b03613c9d565b5b602002602001015160056000868481518110612b2357612b22613c9d565b5b602002602001015181526020019081526020016000206000828254612b489190613e68565b9250508190555080612b5990613cfb565b9050612ae8565b505b600073ffffffffffffffffffffffffffffffffffffffff168473ffffffffffffffffffffffffffffffffffffffff161415612c6c5760005b8351811015612c6a576000848281518110612bb857612bb7613c9d565b5b602002602001015190506000848381518110612bd757612bd6613c9d565b5b6020026020010151905060006005600084815260200190815260200160002054905081811015612c3c576040517f08c379a0000000000000000000000000000000000000000000000000000000008152600401612c33906148ac565b60405180910390fd5b818103600560008581526020019081526020016000208190555050505080612c6390613cfb565b9050612b9a565b505b505050505050565b6000808273ffffffffffffffffffffffffffffffffffffffff163b119050919050565b505050505050565b828054612cab90613ab5565b90600052602060002090601f016020900481019282612ccd5760008555612d14565b82601f10612ce657805160ff1916838001178555612d14565b82800160010185558215612d14579182015b82811115612d13578251825591602001919060010190612cf8565b5b509050612d219190612d25565b5090565b5b80821115612d3e576000816000905550600101612d26565b5090565b6000604051905090565b600080fd5b600080fd5b600073ffffffffffffffffffffffffffffffffffffffff82169050919050565b6000612d8182612d56565b9050919050565b612d9181612d76565b8114612d9c57600080fd5b50565b600081359050612dae81612d88565b92915050565b6000819050919050565b612dc781612db4565b8114612dd257600080fd5b50565b600081359050612de481612dbe565b92915050565b60008060408385031215612e0157612e00612d4c565b5b6000612e0f85828601612d9f565b9250506020612e2085828601612dd5565b9150509250929050565b612e3381612db4565b82525050565b6000602082019050612e4e6000830184612e2a565b92915050565b60007fffffffff0000000000000000000000000000000000000000000000000000000082169050919050565b612e8981612e54565b8114612e9457600080fd5b50565b600081359050612ea681612e80565b92915050565b600060208284031215612ec257612ec1612d4c565b5b6000612ed084828501612e97565b91505092915050565b60008115159050919050565b612eee81612ed9565b82525050565b6000602082019050612f096000830184612ee5565b92915050565b600080fd5b600080fd5b6000601f19601f8301169050919050565b7f4e487b7100000000000000000000000000000000000000000000000000000000600052604160045260246000fd5b612f6282612f19565b810181811067ffffffffffffffff82111715612f8157612f80612f2a565b5b80604052505050565b6000612f94612d42565b9050612fa08282612f59565b919050565b600067ffffffffffffffff821115612fc057612fbf612f2a565b5b612fc982612f19565b9050602081019050919050565b82818337600083830152505050565b6000612ff8612ff384612fa5565b612f8a565b90508281526020810184848401111561301457613013612f14565b5b61301f848285612fd6565b509392505050565b600082601f83011261303c5761303b612f0f565b5b813561304c848260208601612fe5565b91505092915050565b60006020828403121561306b5761306a612d4c565b5b600082013567ffffffffffffffff81111561308957613088612d51565b5b61309584828501613027565b91505092915050565b6000602082840312156130b4576130b3612d4c565b5b60006130c284828501612dd5565b91505092915050565b600081519050919050565b600082825260208201905092915050565b60005b838110156131055780820151818401526020810190506130ea565b83811115613114576000848401525b50505050565b6000613125826130cb565b61312f81856130d6565b935061313f8185602086016130e7565b61314881612f19565b840191505092915050565b6000602082019050818103600083015261316d818461311a565b905092915050565b600067ffffffffffffffff8211156131905761318f612f2a565b5b602082029050602081019050919050565b600080fd5b60006131b96131b484613175565b612f8a565b905080838252602082019050602084028301858111156131dc576131db6131a1565b5b835b8181101561320557806131f18882612dd5565b8452602084019350506020810190506131de565b5050509392505050565b600082601f83011261322457613223612f0f565b5b81356132348482602086016131a6565b91505092915050565b600067ffffffffffffffff82111561325857613257612f2a565b5b61326182612f19565b9050602081019050919050565b600061328161327c8461323d565b612f8a565b90508281526020810184848401111561329d5761329c612f14565b5b6132a8848285612fd6565b509392505050565b600082601f8301126132c5576132c4612f0f565b5b81356132d584826020860161326e565b91505092915050565b600080600080608085870312156132f8576132f7612d4c565b5b600061330687828801612d9f565b945050602085013567ffffffffffffffff81111561332757613326612d51565b5b6133338782880161320f565b935050604085013567ffffffffffffffff81111561335457613353612d51565b5b6133608782880161320f565b925050606085013567ffffffffffffffff81111561338157613380612d51565b5b61338d878288016132b0565b91505092959194509250565b6000819050919050565b6133ac81613399565b81146133b757600080fd5b50565b6000813590506133c9816133a3565b92915050565b6000602082840312156133e5576133e4612d4c565b5b60006133f3848285016133ba565b91505092915050565b61340581613399565b82525050565b600060208201905061342060008301846133fc565b92915050565b600080600080600060a0868803121561344257613441612d4c565b5b600061345088828901612d9f565b955050602061346188828901612d9f565b945050604086013567ffffffffffffffff81111561348257613481612d51565b5b61348e8882890161320f565b935050606086013567ffffffffffffffff8111156134af576134ae612d51565b5b6134bb8882890161320f565b925050608086013567ffffffffffffffff8111156134dc576134db612d51565b5b6134e8888289016132b0565b9150509295509295909350565b6000806040838503121561350c5761350b612d4c565b5b600061351a858286016133ba565b925050602061352b85828601612d9f565b9150509250929050565b600067ffffffffffffffff8211156135505761354f612f2a565b5b602082029050602081019050919050565b600061357461356f84613535565b612f8a565b90508083825260208201905060208402830185811115613597576135966131a1565b5b835b818110156135c057806135ac8882612d9f565b845260208401935050602081019050613599565b5050509392505050565b600082601f8301126135df576135de612f0f565b5b81356135ef848260208601613561565b91505092915050565b6000806040838503121561360f5761360e612d4c565b5b600083013567ffffffffffffffff81111561362d5761362c612d51565b5b613639858286016135ca565b925050602083013567ffffffffffffffff81111561365a57613659612d51565b5b6136668582860161320f565b9150509250929050565b600081519050919050565b600082825260208201905092915050565b6000819050602082019050919050565b6136a581612db4565b82525050565b60006136b7838361369c565b60208301905092915050565b6000602082019050919050565b60006136db82613670565b6136e5818561367b565b93506136f08361368c565b8060005b8381101561372157815161370888826136ab565b9750613713836136c3565b9250506001810190506136f4565b5085935050505092915050565b6000602082019050818103600083015261374881846136d0565b905092915050565b60008060006060848603121561376957613768612d4c565b5b600061377786828701612d9f565b935050602084013567ffffffffffffffff81111561379857613797612d51565b5b6137a48682870161320f565b925050604084013567ffffffffffffffff8111156137c5576137c4612d51565b5b6137d18682870161320f565b9150509250925092565b600080600080608085870312156137f5576137f4612d4c565b5b600061380387828801612d9f565b945050602061381487828801612dd5565b935050604061382587828801612dd5565b925050606085013567ffffffffffffffff81111561384657613845612d51565b5b613852878288016132b0565b91505092959194509250565b61386781612ed9565b811461387257600080fd5b50565b6000813590506138848161385e565b92915050565b600080604083850312156138a1576138a0612d4c565b5b60006138af85828601612d9f565b92505060206138c085828601613875565b9150509250929050565b600080604083850312156138e1576138e0612d4c565b5b60006138ef85828601612d9f565b925050602061390085828601612d9f565b9150509250929050565b600080600080600060a0868803121561392657613925612d4c565b5b600061393488828901612d9f565b955050602061394588828901612d9f565b945050604061395688828901612dd5565b935050606061396788828901612dd5565b925050608086013567ffffffffffffffff81111561398857613987612d51565b5b613994888289016132b0565b9150509295509295909350565b6000806000606084860312156139ba576139b9612d4c565b5b60006139c886828701612d9f565b93505060206139d986828701612dd5565b92505060406139ea86828701612dd5565b9150509250925092565b7f455243313135353a2061646472657373207a65726f206973206e6f742061207660008201527f616c6964206f776e657200000000000000000000000000000000000000000000602082015250565b6000613a50602a836130d6565b9150613a5b826139f4565b604082019050919050565b60006020820190508181036000830152613a7f81613a43565b9050919050565b7f4e487b7100000000000000000000000000000000000000000000000000000000600052602260045260246000fd5b60006002820490506001821680613acd57607f821691505b60208210811415613ae157613ae0613a86565b5b50919050565b7f455243313135353a2063616c6c6572206973206e6f7420746f6b656e206f776e60008201527f6572206f7220617070726f766564000000000000000000000000000000000000602082015250565b6000613b43602e836130d6565b9150613b4e82613ae7565b604082019050919050565b60006020820190508181036000830152613b7281613b36565b9050919050565b7f416363657373436f6e74726f6c3a2063616e206f6e6c792072656e6f756e636560008201527f20726f6c657320666f722073656c660000000000000000000000000000000000602082015250565b6000613bd5602f836130d6565b9150613be082613b79565b604082019050919050565b60006020820190508181036000830152613c0481613bc8565b9050919050565b7f455243313135353a206163636f756e747320616e6420696473206c656e67746860008201527f206d69736d617463680000000000000000000000000000000000000000000000602082015250565b6000613c676029836130d6565b9150613c7282613c0b565b604082019050919050565b60006020820190508181036000830152613c9681613c5a565b9050919050565b7f4e487b7100000000000000000000000000000000000000000000000000000000600052603260045260246000fd5b7f4e487b7100000000000000000000000000000000000000000000000000000000600052601160045260246000fd5b6000613d0682612db4565b91507fffffffffffffffffffffffffffffffffffffffffffffffffffffffffffffffff821415613d3957613d38613ccc565b5b600182019050919050565b7f455243313135353a206d696e7420746f20746865207a65726f2061646472657360008201527f7300000000000000000000000000000000000000000000000000000000000000602082015250565b6000613da06021836130d6565b9150613dab82613d44565b604082019050919050565b60006020820190508181036000830152613dcf81613d93565b9050919050565b7f455243313135353a2069647320616e6420616d6f756e7473206c656e6774682060008201527f6d69736d61746368000000000000000000000000000000000000000000000000602082015250565b6000613e326028836130d6565b9150613e3d82613dd6565b604082019050919050565b60006020820190508181036000830152613e6181613e25565b9050919050565b6000613e7382612db4565b9150613e7e83612db4565b9250827fffffffffffffffffffffffffffffffffffffffffffffffffffffffffffffffff03821115613eb357613eb2613ccc565b5b828201905092915050565b60006040820190508181036000830152613ed881856136d0565b90508181036020830152613eec81846136d0565b90509392505050565b7f455243313135353a207472616e7366657220746f20746865207a65726f20616460008201527f6472657373000000000000000000000000000000000000000000000000000000602082015250565b6000613f516025836130d6565b9150613f5c82613ef5565b604082019050919050565b60006020820190508181036000830152613f8081613f44565b9050919050565b7f455243313135353a20696e73756666696369656e742062616c616e636520666f60008201527f72207472616e7366657200000000000000000000000000000000000000000000602082015250565b6000613fe3602a836130d6565b9150613fee82613f87565b604082019050919050565b6000602082019050818103600083015261401281613fd6565b9050919050565b61402281612d76565b82525050565b600060208201905061403d6000830184614019565b92915050565b7f455243313135353a206275726e2066726f6d20746865207a65726f206164647260008201527f6573730000000000000000000000000000000000000000000000000000000000602082015250565b600061409f6023836130d6565b91506140aa82614043565b604082019050919050565b600060208201905081810360008301526140ce81614092565b9050919050565b7f455243313135353a206275726e20616d6f756e7420657863656564732062616c60008201527f616e636500000000000000000000000000000000000000000000000000000000602082015250565b60006141316024836130d6565b915061413c826140d5565b604082019050919050565b6000602082019050818103600083015261416081614124565b9050919050565b600060408201905061417c6000830185612e2a565b6141896020830184612e2a565b9392505050565b7f455243313135353a2073657474696e6720617070726f76616c2073746174757360008201527f20666f722073656c660000000000000000000000000000000000000000000000602082015250565b60006141ec6029836130d6565b91506141f782614190565b604082019050919050565b6000602082019050818103600083015261421b816141df565b9050919050565b600081905092915050565b7f416363657373436f6e74726f6c3a206163636f756e7420000000000000000000600082015250565b6000614263601783614222565b915061426e8261422d565b601782019050919050565b6000614284826130cb565b61428e8185614222565b935061429e8185602086016130e7565b80840191505092915050565b7f206973206d697373696e6720726f6c6520000000000000000000000000000000600082015250565b60006142e0601183614222565b91506142eb826142aa565b601182019050919050565b600061430182614256565b915061430d8285614279565b9150614318826142d3565b91506143248284614279565b91508190509392505050565b600081519050919050565b600082825260208201905092915050565b600061435782614330565b614361818561433b565b93506143718185602086016130e7565b61437a81612f19565b840191505092915050565b600060a08201905061439a6000830188614019565b6143a76020830187614019565b81810360408301526143b981866136d0565b905081810360608301526143cd81856136d0565b905081810360808301526143e1818461434c565b90509695505050505050565b6000815190506143fc81612e80565b92915050565b60006020828403121561441857614417612d4c565b5b6000614426848285016143ed565b91505092915050565b60008160e01c9050919050565b600060033d111561445b5760046000803e61445860005161442f565b90505b90565b600060443d101561446e576144f1565b614476612d42565b60043d036004823e80513d602482011167ffffffffffffffff8211171561449e5750506144f1565b808201805167ffffffffffffffff8111156144bc57505050506144f1565b80602083010160043d0385018111156144d95750505050506144f1565b6144e882602001850186612f59565b82955050505050505b90565b7f455243313135353a207472616e7366657220746f206e6f6e2d4552433131353560008201527f526563656976657220696d706c656d656e746572000000000000000000000000602082015250565b60006145506034836130d6565b915061455b826144f4565b604082019050919050565b6000602082019050818103600083015261457f81614543565b9050919050565b7f455243313135353a204552433131353552656365697665722072656a6563746560008201527f6420746f6b656e73000000000000000000000000000000000000000000000000602082015250565b60006145e26028836130d6565b91506145ed82614586565b604082019050919050565b60006020820190508181036000830152614611816145d5565b9050919050565b7f5061757361626c653a206e6f7420706175736564000000000000000000000000600082015250565b600061464e6014836130d6565b915061465982614618565b602082019050919050565b6000602082019050818103600083015261467d81614641565b9050919050565b600060a0820190506146996000830188614019565b6146a66020830187614019565b6146b36040830186612e2a565b6146c06060830185612e2a565b81810360808301526146d2818461434c565b90509695505050505050565b7f5061757361626c653a2070617573656400000000000000000000000000000000600082015250565b60006147146010836130d6565b915061471f826146de565b602082019050919050565b6000602082019050818103600083015261474381614707565b9050919050565b600061475582612db4565b915061476083612db4565b9250817fffffffffffffffffffffffffffffffffffffffffffffffffffffffffffffffff048311821515161561479957614798613ccc565b5b828202905092915050565b60006147af82612db4565b915060008214156147c3576147c2613ccc565b5b600182039050919050565b7f537472696e67733a20686578206c656e67746820696e73756666696369656e74600082015250565b60006148046020836130d6565b915061480f826147ce565b602082019050919050565b60006020820190508181036000830152614833816147f7565b9050919050565b7f455243313135353a206275726e20616d6f756e74206578636565647320746f7460008201527f616c537570706c79000000000000000000000000000000000000000000000000602082015250565b60006148966028836130d6565b91506148a18261483a565b604082019050919050565b600060208201905081810360008301526148c581614889565b905091905056fea2646970667358221220c9410d7bd75a33bd3e05f70038deaaa6347f8e3e6cf0c96c2767e64f939dc3f964736f6c63430008090033",
  "devdoc": {
    "custom:security-contact": "code@dirtroad.dev",
    "kind": "dev",
    "methods": {
      "balanceOf(address,uint256)": {
        "details": "See {IERC1155-balanceOf}. Requirements: - `account` cannot be the zero address."
      },
      "balanceOfBatch(address[],uint256[])": {
        "details": "See {IERC1155-balanceOfBatch}. Requirements: - `accounts` and `ids` must have the same length."
      },
      "exists(uint256)": {
        "details": "Indicates whether any token exist with a given id, or not."
      },
      "getRoleAdmin(bytes32)": {
        "details": "Returns the admin role that controls `role`. See {grantRole} and {revokeRole}. To change a role's admin, use {_setRoleAdmin}."
      },
      "grantRole(bytes32,address)": {
        "details": "Grants `role` to `account`. If `account` had not been already granted `role`, emits a {RoleGranted} event. Requirements: - the caller must have ``role``'s admin role. May emit a {RoleGranted} event."
      },
      "hasRole(bytes32,address)": {
        "details": "Returns `true` if `account` has been granted `role`."
      },
      "isApprovedForAll(address,address)": {
        "details": "See {IERC1155-isApprovedForAll}."
      },
      "paused()": {
        "details": "Returns true if the contract is paused, and false otherwise."
      },
      "renounceRole(bytes32,address)": {
        "details": "Revokes `role` from the calling account. Roles are often managed via {grantRole} and {revokeRole}: this function's purpose is to provide a mechanism for accounts to lose their privileges if they are compromised (such as when a trusted device is misplaced). If the calling account had been revoked `role`, emits a {RoleRevoked} event. Requirements: - the caller must be `account`. May emit a {RoleRevoked} event."
      },
      "revokeRole(bytes32,address)": {
        "details": "Revokes `role` from `account`. If `account` had been granted `role`, emits a {RoleRevoked} event. Requirements: - the caller must have ``role``'s admin role. May emit a {RoleRevoked} event."
      },
      "safeBatchTransferFrom(address,address,uint256[],uint256[],bytes)": {
        "details": "See {IERC1155-safeBatchTransferFrom}."
      },
      "safeTransferFrom(address,address,uint256,uint256,bytes)": {
        "details": "See {IERC1155-safeTransferFrom}."
      },
      "setApprovalForAll(address,bool)": {
        "details": "See {IERC1155-setApprovalForAll}."
      },
      "totalSupply(uint256)": {
        "details": "Total amount of tokens in with a given id."
      },
      "uri(uint256)": {
        "details": "See {IERC1155MetadataURI-uri}. This implementation returns the same URI for *all* token types. It relies on the token type ID substitution mechanism https://eips.ethereum.org/EIPS/eip-1155#metadata[defined in the EIP]. Clients calling this function must replace the `\\{id\\}` substring with the actual token type ID."
      }
    },
    "version": 1
  },
  "userdoc": {
    "kind": "user",
    "methods": {},
    "version": 1
  },
  "storageLayout": {
    "storage": [
      {
        "astId": 522,
        "contract": "contracts/Avatar.sol:Avatar",
        "label": "_balances",
        "offset": 0,
        "slot": "0",
        "type": "t_mapping(t_uint256,t_mapping(t_address,t_uint256))"
      },
      {
        "astId": 528,
        "contract": "contracts/Avatar.sol:Avatar",
        "label": "_operatorApprovals",
        "offset": 0,
        "slot": "1",
        "type": "t_mapping(t_address,t_mapping(t_address,t_bool))"
      },
      {
        "astId": 530,
        "contract": "contracts/Avatar.sol:Avatar",
        "label": "_uri",
        "offset": 0,
        "slot": "2",
        "type": "t_string_storage"
      },
      {
        "astId": 24,
        "contract": "contracts/Avatar.sol:Avatar",
        "label": "_roles",
        "offset": 0,
        "slot": "3",
        "type": "t_mapping(t_bytes32,t_struct(RoleData)19_storage)"
      },
      {
        "astId": 406,
        "contract": "contracts/Avatar.sol:Avatar",
        "label": "_paused",
        "offset": 0,
        "slot": "4",
        "type": "t_bool"
      },
      {
        "astId": 1961,
        "contract": "contracts/Avatar.sol:Avatar",
        "label": "_totalSupply",
        "offset": 0,
        "slot": "5",
        "type": "t_mapping(t_uint256,t_uint256)"
      }
    ],
    "types": {
      "t_address": {
        "encoding": "inplace",
        "label": "address",
        "numberOfBytes": "20"
      },
      "t_bool": {
        "encoding": "inplace",
        "label": "bool",
        "numberOfBytes": "1"
      },
      "t_bytes32": {
        "encoding": "inplace",
        "label": "bytes32",
        "numberOfBytes": "32"
      },
      "t_mapping(t_address,t_bool)": {
        "encoding": "mapping",
        "key": "t_address",
        "label": "mapping(address => bool)",
        "numberOfBytes": "32",
        "value": "t_bool"
      },
      "t_mapping(t_address,t_mapping(t_address,t_bool))": {
        "encoding": "mapping",
        "key": "t_address",
        "label": "mapping(address => mapping(address => bool))",
        "numberOfBytes": "32",
        "value": "t_mapping(t_address,t_bool)"
      },
      "t_mapping(t_address,t_uint256)": {
        "encoding": "mapping",
        "key": "t_address",
        "label": "mapping(address => uint256)",
        "numberOfBytes": "32",
        "value": "t_uint256"
      },
      "t_mapping(t_bytes32,t_struct(RoleData)19_storage)": {
        "encoding": "mapping",
        "key": "t_bytes32",
        "label": "mapping(bytes32 => struct AccessControl.RoleData)",
        "numberOfBytes": "32",
        "value": "t_struct(RoleData)19_storage"
      },
      "t_mapping(t_uint256,t_mapping(t_address,t_uint256))": {
        "encoding": "mapping",
        "key": "t_uint256",
        "label": "mapping(uint256 => mapping(address => uint256))",
        "numberOfBytes": "32",
        "value": "t_mapping(t_address,t_uint256)"
      },
      "t_mapping(t_uint256,t_uint256)": {
        "encoding": "mapping",
        "key": "t_uint256",
        "label": "mapping(uint256 => uint256)",
        "numberOfBytes": "32",
        "value": "t_uint256"
      },
      "t_string_storage": {
        "encoding": "bytes",
        "label": "string",
        "numberOfBytes": "32"
      },
      "t_struct(RoleData)19_storage": {
        "encoding": "inplace",
        "label": "struct AccessControl.RoleData",
        "members": [
          {
            "astId": 16,
            "contract": "contracts/Avatar.sol:Avatar",
            "label": "members",
            "offset": 0,
            "slot": "0",
            "type": "t_mapping(t_address,t_bool)"
          },
          {
            "astId": 18,
            "contract": "contracts/Avatar.sol:Avatar",
            "label": "adminRole",
            "offset": 0,
            "slot": "1",
            "type": "t_bytes32"
          }
        ],
        "numberOfBytes": "64"
      },
      "t_uint256": {
        "encoding": "inplace",
        "label": "uint256",
        "numberOfBytes": "32"
      }
    }
  }
}