{
  "address": "0x55e13bEfAd76BA82A755A8C1b6F72dF1396Fbb13",
  "abi": [
    {
      "inputs": [],
      "stateMutability": "nonpayable",
      "type": "constructor"
    },
    {
      "anonymous": false,
      "inputs": [
        {
          "indexed": true,
          "internalType": "address",
          "name": "account",
          "type": "address"
        },
        {
          "indexed": true,
          "internalType": "address",
          "name": "operator",
          "type": "address"
        },
        {
          "indexed": false,
          "internalType": "bool",
          "name": "approved",
          "type": "bool"
        }
      ],
      "name": "ApprovalForAll",
      "type": "event"
    },
    {
      "anonymous": false,
      "inputs": [
        {
          "indexed": true,
          "internalType": "uint256",
          "name": "tokenId",
          "type": "uint256"
        },
        {
          "indexed": true,
          "internalType": "address",
          "name": "destoryer",
          "type": "address"
        }
      ],
      "name": "Destroy",
      "type": "event"
    },
    {
      "anonymous": false,
      "inputs": [
        {
          "indexed": false,
          "internalType": "address",
          "name": "account",
          "type": "address"
        }
      ],
      "name": "Paused",
      "type": "event"
    },
    {
      "anonymous": false,
      "inputs": [
        {
          "indexed": true,
          "internalType": "bytes32",
          "name": "role",
          "type": "bytes32"
        },
        {
          "indexed": true,
          "internalType": "bytes32",
          "name": "previousAdminRole",
          "type": "bytes32"
        },
        {
          "indexed": true,
          "internalType": "bytes32",
          "name": "newAdminRole",
          "type": "bytes32"
        }
      ],
      "name": "RoleAdminChanged",
      "type": "event"
    },
    {
      "anonymous": false,
      "inputs": [
        {
          "indexed": true,
          "internalType": "bytes32",
          "name": "role",
          "type": "bytes32"
        },
        {
          "indexed": true,
          "internalType": "address",
          "name": "account",
          "type": "address"
        },
        {
          "indexed": true,
          "internalType": "address",
          "name": "sender",
          "type": "address"
        }
      ],
      "name": "RoleGranted",
      "type": "event"
    },
    {
      "anonymous": false,
      "inputs": [
        {
          "indexed": true,
          "internalType": "bytes32",
          "name": "role",
          "type": "bytes32"
        },
        {
          "indexed": true,
          "internalType": "address",
          "name": "account",
          "type": "address"
        },
        {
          "indexed": true,
          "internalType": "address",
          "name": "sender",
          "type": "address"
        }
      ],
      "name": "RoleRevoked",
      "type": "event"
    },
    {
      "anonymous": false,
      "inputs": [
        {
          "indexed": true,
          "internalType": "address",
          "name": "operator",
          "type": "address"
        },
        {
          "indexed": true,
          "internalType": "address",
          "name": "from",
          "type": "address"
        },
        {
          "indexed": true,
          "internalType": "address",
          "name": "to",
          "type": "address"
        },
        {
          "indexed": false,
          "internalType": "uint256[]",
          "name": "ids",
          "type": "uint256[]"
        },
        {
          "indexed": false,
          "internalType": "uint256[]",
          "name": "values",
          "type": "uint256[]"
        }
      ],
      "name": "TransferBatch",
      "type": "event"
    },
    {
      "anonymous": false,
      "inputs": [
        {
          "indexed": true,
          "internalType": "address",
          "name": "operator",
          "type": "address"
        },
        {
          "indexed": true,
          "internalType": "address",
          "name": "from",
          "type": "address"
        },
        {
          "indexed": true,
          "internalType": "address",
          "name": "to",
          "type": "address"
        },
        {
          "indexed": false,
          "internalType": "uint256",
          "name": "id",
          "type": "uint256"
        },
        {
          "indexed": false,
          "internalType": "uint256",
          "name": "value",
          "type": "uint256"
        }
      ],
      "name": "TransferSingle",
      "type": "event"
    },
    {
      "anonymous": false,
      "inputs": [
        {
          "indexed": false,
          "internalType": "string",
          "name": "value",
          "type": "string"
        },
        {
          "indexed": true,
          "internalType": "uint256",
          "name": "id",
          "type": "uint256"
        }
      ],
      "name": "URI",
      "type": "event"
    },
    {
      "anonymous": false,
      "inputs": [
        {
          "indexed": false,
          "internalType": "address",
          "name": "account",
          "type": "address"
        }
      ],
      "name": "Unpaused",
      "type": "event"
    },
    {
      "inputs": [],
      "name": "DEFAULT_ADMIN_ROLE",
      "outputs": [
        {
          "internalType": "bytes32",
          "name": "",
          "type": "bytes32"
        }
      ],
      "stateMutability": "view",
      "type": "function"
    },
    {
      "inputs": [],
      "name": "MINTER_ROLE",
      "outputs": [
        {
          "internalType": "bytes32",
          "name": "",
          "type": "bytes32"
        }
      ],
      "stateMutability": "view",
      "type": "function"
    },
    {
      "inputs": [],
      "name": "PAUSER_ROLE",
      "outputs": [
        {
          "internalType": "bytes32",
          "name": "",
          "type": "bytes32"
        }
      ],
      "stateMutability": "view",
      "type": "function"
    },
    {
      "inputs": [],
      "name": "URI_SETTER_ROLE",
      "outputs": [
        {
          "internalType": "bytes32",
          "name": "",
          "type": "bytes32"
        }
      ],
      "stateMutability": "view",
      "type": "function"
    },
    {
      "inputs": [
        {
          "internalType": "address",
          "name": "account",
          "type": "address"
        },
        {
          "internalType": "uint256",
          "name": "id",
          "type": "uint256"
        }
      ],
      "name": "balanceOf",
      "outputs": [
        {
          "internalType": "uint256",
          "name": "",
          "type": "uint256"
        }
      ],
      "stateMutability": "view",
      "type": "function"
    },
    {
      "inputs": [
        {
          "internalType": "address[]",
          "name": "accounts",
          "type": "address[]"
        },
        {
          "internalType": "uint256[]",
          "name": "ids",
          "type": "uint256[]"
        }
      ],
      "name": "balanceOfBatch",
      "outputs": [
        {
          "internalType": "uint256[]",
          "name": "",
          "type": "uint256[]"
        }
      ],
      "stateMutability": "view",
      "type": "function"
    },
    {
      "inputs": [
        {
          "internalType": "address",
          "name": "account",
          "type": "address"
        },
        {
          "internalType": "uint256",
          "name": "id",
          "type": "uint256"
        },
        {
          "internalType": "uint256",
          "name": "value",
          "type": "uint256"
        }
      ],
      "name": "burn",
      "outputs": [],
      "stateMutability": "nonpayable",
      "type": "function"
    },
    {
      "inputs": [
        {
          "internalType": "address",
          "name": "account",
          "type": "address"
        },
        {
          "internalType": "uint256[]",
          "name": "ids",
          "type": "uint256[]"
        },
        {
          "internalType": "uint256[]",
          "name": "values",
          "type": "uint256[]"
        }
      ],
      "name": "burnBatch",
      "outputs": [],
      "stateMutability": "nonpayable",
      "type": "function"
    },
    {
      "inputs": [
        {
          "internalType": "uint256",
          "name": "tokenId",
          "type": "uint256"
        },
        {
          "internalType": "address",
          "name": "destroyer",
          "type": "address"
        }
      ],
      "name": "destroy",
      "outputs": [],
      "stateMutability": "nonpayable",
      "type": "function"
    },
    {
      "inputs": [
        {
          "internalType": "address",
          "name": "",
          "type": "address"
        },
        {
          "internalType": "uint256",
          "name": "",
          "type": "uint256"
        }
      ],
      "name": "destroyTracking",
      "outputs": [
        {
          "internalType": "uint256",
          "name": "",
          "type": "uint256"
        }
      ],
      "stateMutability": "view",
      "type": "function"
    },
    {
      "inputs": [
        {
          "internalType": "uint256",
          "name": "id",
          "type": "uint256"
        }
      ],
      "name": "exists",
      "outputs": [
        {
          "internalType": "bool",
          "name": "",
          "type": "bool"
        }
      ],
      "stateMutability": "view",
      "type": "function"
    },
    {
      "inputs": [
        {
          "internalType": "bytes32",
          "name": "role",
          "type": "bytes32"
        }
      ],
      "name": "getRoleAdmin",
      "outputs": [
        {
          "internalType": "bytes32",
          "name": "",
          "type": "bytes32"
        }
      ],
      "stateMutability": "view",
      "type": "function"
    },
    {
      "inputs": [
        {
          "internalType": "bytes32",
          "name": "role",
          "type": "bytes32"
        },
        {
          "internalType": "address",
          "name": "account",
          "type": "address"
        }
      ],
      "name": "grantRole",
      "outputs": [],
      "stateMutability": "nonpayable",
      "type": "function"
    },
    {
      "inputs": [
        {
          "internalType": "bytes32",
          "name": "role",
          "type": "bytes32"
        },
        {
          "internalType": "address",
          "name": "account",
          "type": "address"
        }
      ],
      "name": "hasRole",
      "outputs": [
        {
          "internalType": "bool",
          "name": "",
          "type": "bool"
        }
      ],
      "stateMutability": "view",
      "type": "function"
    },
    {
      "inputs": [
        {
          "internalType": "address",
          "name": "account",
          "type": "address"
        },
        {
          "internalType": "address",
          "name": "operator",
          "type": "address"
        }
      ],
      "name": "isApprovedForAll",
      "outputs": [
        {
          "internalType": "bool",
          "name": "",
          "type": "bool"
        }
      ],
      "stateMutability": "view",
      "type": "function"
    },
    {
      "inputs": [],
      "name": "pause",
      "outputs": [],
      "stateMutability": "nonpayable",
      "type": "function"
    },
    {
      "inputs": [],
      "name": "paused",
      "outputs": [
        {
          "internalType": "bool",
          "name": "",
          "type": "bool"
        }
      ],
      "stateMutability": "view",
      "type": "function"
    },
    {
      "inputs": [
        {
          "internalType": "bytes32",
          "name": "role",
          "type": "bytes32"
        },
        {
          "internalType": "address",
          "name": "account",
          "type": "address"
        }
      ],
      "name": "renounceRole",
      "outputs": [],
      "stateMutability": "nonpayable",
      "type": "function"
    },
    {
      "inputs": [
        {
          "internalType": "bytes32",
          "name": "role",
          "type": "bytes32"
        },
        {
          "internalType": "address",
          "name": "account",
          "type": "address"
        }
      ],
      "name": "revokeRole",
      "outputs": [],
      "stateMutability": "nonpayable",
      "type": "function"
    },
    {
      "inputs": [
        {
          "internalType": "address",
          "name": "from",
          "type": "address"
        },
        {
          "internalType": "address",
          "name": "to",
          "type": "address"
        },
        {
          "internalType": "uint256[]",
          "name": "ids",
          "type": "uint256[]"
        },
        {
          "internalType": "uint256[]",
          "name": "amounts",
          "type": "uint256[]"
        },
        {
          "internalType": "bytes",
          "name": "data",
          "type": "bytes"
        }
      ],
      "name": "safeBatchTransferFrom",
      "outputs": [],
      "stateMutability": "nonpayable",
      "type": "function"
    },
    {
      "inputs": [
        {
          "internalType": "address",
          "name": "from",
          "type": "address"
        },
        {
          "internalType": "address",
          "name": "to",
          "type": "address"
        },
        {
          "internalType": "uint256",
          "name": "id",
          "type": "uint256"
        },
        {
          "internalType": "uint256",
          "name": "amount",
          "type": "uint256"
        },
        {
          "internalType": "bytes",
          "name": "data",
          "type": "bytes"
        }
      ],
      "name": "safeTransferFrom",
      "outputs": [],
      "stateMutability": "nonpayable",
      "type": "function"
    },
    {
      "inputs": [
        {
          "internalType": "address",
          "name": "operator",
          "type": "address"
        },
        {
          "internalType": "bool",
          "name": "approved",
          "type": "bool"
        }
      ],
      "name": "setApprovalForAll",
      "outputs": [],
      "stateMutability": "nonpayable",
      "type": "function"
    },
    {
      "inputs": [
        {
          "internalType": "string",
          "name": "newuri",
          "type": "string"
        }
      ],
      "name": "setURI",
      "outputs": [],
      "stateMutability": "nonpayable",
      "type": "function"
    },
    {
      "inputs": [
        {
          "internalType": "bytes4",
          "name": "interfaceId",
          "type": "bytes4"
        }
      ],
      "name": "supportsInterface",
      "outputs": [
        {
          "internalType": "bool",
          "name": "",
          "type": "bool"
        }
      ],
      "stateMutability": "view",
      "type": "function"
    },
    {
      "inputs": [],
      "name": "totalDestroyed",
      "outputs": [
        {
          "internalType": "uint256",
          "name": "_value",
          "type": "uint256"
        }
      ],
      "stateMutability": "view",
      "type": "function"
    },
    {
      "inputs": [
        {
          "internalType": "uint256",
          "name": "id",
          "type": "uint256"
        }
      ],
      "name": "totalSupply",
      "outputs": [
        {
          "internalType": "uint256",
          "name": "",
          "type": "uint256"
        }
      ],
      "stateMutability": "view",
      "type": "function"
    },
    {
      "inputs": [],
      "name": "unpause",
      "outputs": [],
      "stateMutability": "nonpayable",
      "type": "function"
    },
    {
      "inputs": [
        {
          "internalType": "uint256",
          "name": "",
          "type": "uint256"
        }
      ],
      "name": "uri",
      "outputs": [
        {
          "internalType": "string",
          "name": "",
          "type": "string"
        }
      ],
      "stateMutability": "view",
      "type": "function"
    }
  ],
  "transactionHash": "0x1034a65e582627414cf01b13b0f56cb66b28f696ec42b1c95439ad4c64b29735",
  "args": [],
  "numDeployments": 1,
  "solcInputHash": "20b738491a3d0227532e3d82e68bf157",
  "bytecode": "0x60806040523480156200001157600080fd5b506040518060400160405280600781526020017f697066733a2f2f0000000000000000000000000000000000000000000000000081525062000059816200012660201b60201c565b506000600460006101000a81548160ff0219169083151502179055506200008a6000801b336200014260201b60201c565b620000bc7f7804d923f43a17d325d77e781528e0793b2edd9890ab45fc64efd7b4b427744c336200014260201b60201c565b620000ee7f65d7a28e3265b37a6474929f336521b332c1681b933f6cb9f3376673440d862a336200014260201b60201c565b620001207f9f2df0fed2c77648de5860a4cc508cd0818c85b8b8a1ab4ceeef8d981c8956a6336200014260201b60201c565b620003bc565b80600290805190602001906200013e929190620002a7565b5050565b6200015482826200023460201b60201c565b620002305760016003600084815260200190815260200160002060000160008373ffffffffffffffffffffffffffffffffffffffff1673ffffffffffffffffffffffffffffffffffffffff16815260200190815260200160002060006101000a81548160ff021916908315150217905550620001d56200029f60201b60201c565b73ffffffffffffffffffffffffffffffffffffffff168173ffffffffffffffffffffffffffffffffffffffff16837f2f8788117e7eff1d82e926ec794901d17c78024a50270940304540a733656f0d60405160405180910390a45b5050565b60006003600084815260200190815260200160002060000160008373ffffffffffffffffffffffffffffffffffffffff1673ffffffffffffffffffffffffffffffffffffffff16815260200190815260200160002060009054906101000a900460ff16905092915050565b600033905090565b828054620002b59062000386565b90600052602060002090601f016020900481019282620002d9576000855562000325565b82601f10620002f457805160ff191683800117855562000325565b8280016001018555821562000325579182015b828111156200032457825182559160200191906001019062000307565b5b50905062000334919062000338565b5090565b5b808211156200035357600081600090555060010162000339565b5090565b7f4e487b7100000000000000000000000000000000000000000000000000000000600052602260045260246000fd5b600060028204905060018216806200039f57607f821691505b60208210811415620003b657620003b562000357565b5b50919050565b6146c780620003cc6000396000f3fe608060405234801561001057600080fd5b50600436106101c35760003560e01c80636b20c454116100f9578063bd85b03911610097578063e63ab1e911610071578063e63ab1e914610502578063e985e9c514610520578063f242432a14610550578063f5298aca1461056c576101c3565b8063bd85b03914610498578063d5391393146104c8578063d547741f146104e6576101c3565b80638dec3daa116100d35780638dec3daa1461041257806391d148541461042e578063a217fddf1461045e578063a22cb4651461047c576101c3565b80636b20c454146103ce5780637f345710146103ea5780638456cb5914610408576101c3565b80632f2ff15d116101665780633f4ba83a116101405780633f4ba83a146103465780634e1273f4146103505780634f558e79146103805780635c975abb146103b0576101c3565b80632f2ff15d146102f05780633368ee481461030c57806336568abe1461032a576101c3565b80630e89341c116101a25780630e89341c1461024457806315f88c7c14610274578063248a9ca3146102a45780632eb2c2d6146102d4576101c3565b8062fdd58e146101c857806301ffc9a7146101f857806302fe530514610228575b600080fd5b6101e260048036038101906101dd9190612cad565b610588565b6040516101ef9190612cfc565b60405180910390f35b610212600480360381019061020d9190612d6f565b610651565b60405161021f9190612db7565b60405180910390f35b610242600480360381019061023d9190612f18565b610663565b005b61025e60048036038101906102599190612f61565b61069a565b60405161026b9190613016565b60405180910390f35b61028e60048036038101906102899190612cad565b61072e565b60405161029b9190612cfc565b60405180910390f35b6102be60048036038101906102b9919061306e565b610753565b6040516102cb91906130aa565b60405180910390f35b6102ee60048036038101906102e9919061322e565b610773565b005b61030a600480360381019061030591906132fd565b610814565b005b610314610835565b6040516103219190612cfc565b60405180910390f35b610344600480360381019061033f91906132fd565b610841565b005b61034e6108c4565b005b61036a60048036038101906103659190613400565b6108f9565b6040516103779190613536565b60405180910390f35b61039a60048036038101906103959190612f61565b610a12565b6040516103a79190612db7565b60405180910390f35b6103b8610a26565b6040516103c59190612db7565b60405180910390f35b6103e860048036038101906103e39190613558565b610a3d565b005b6103f2610ada565b6040516103ff91906130aa565b60405180910390f35b610410610afe565b005b61042c600480360381019061042791906135e3565b610b33565b005b610448600480360381019061044391906132fd565b610c09565b6040516104559190612db7565b60405180910390f35b610466610c74565b60405161047391906130aa565b60405180910390f35b6104966004803603810190610491919061364f565b610c7b565b005b6104b260048036038101906104ad9190612f61565b610c91565b6040516104bf9190612cfc565b60405180910390f35b6104d0610cae565b6040516104dd91906130aa565b60405180910390f35b61050060048036038101906104fb91906132fd565b610cd2565b005b61050a610cf3565b60405161051791906130aa565b60405180910390f35b61053a6004803603810190610535919061368f565b610d17565b6040516105479190612db7565b60405180910390f35b61056a600480360381019061056591906136cf565b610dab565b005b61058660048036038101906105819190613766565b610e4c565b005b60008073ffffffffffffffffffffffffffffffffffffffff168373ffffffffffffffffffffffffffffffffffffffff1614156105f9576040517f08c379a00000000000000000000000000000000000000000000000000000000081526004016105f09061382b565b60405180910390fd5b60008083815260200190815260200160002060008473ffffffffffffffffffffffffffffffffffffffff1673ffffffffffffffffffffffffffffffffffffffff16815260200190815260200160002054905092915050565b600061065c82610ee9565b9050919050565b7f7804d923f43a17d325d77e781528e0793b2edd9890ab45fc64efd7b4b427744c61068d81610f63565b61069682610f77565b5050565b6060600280546106a99061387a565b80601f01602080910402602001604051908101604052809291908181526020018280546106d59061387a565b80156107225780601f106106f757610100808354040283529160200191610722565b820191906000526020600020905b81548152906001019060200180831161070557829003601f168201915b50505050509050919050565b6007602052816000526040600020602052806000526040600020600091509150505481565b600060036000838152602001908152602001600020600101549050919050565b61077b610f91565b73ffffffffffffffffffffffffffffffffffffffff168573ffffffffffffffffffffffffffffffffffffffff1614806107c157506107c0856107bb610f91565b610d17565b5b610800576040517f08c379a00000000000000000000000000000000000000000000000000000000081526004016107f79061391e565b60405180910390fd5b61080d8585858585610f99565b5050505050565b61081d82610753565b61082681610f63565b61083083836112bb565b505050565b60068060000154905081565b610849610f91565b73ffffffffffffffffffffffffffffffffffffffff168173ffffffffffffffffffffffffffffffffffffffff16146108b6576040517f08c379a00000000000000000000000000000000000000000000000000000000081526004016108ad906139b0565b60405180910390fd5b6108c0828261139c565b5050565b7f65d7a28e3265b37a6474929f336521b332c1681b933f6cb9f3376673440d862a6108ee81610f63565b6108f661147e565b50565b6060815183511461093f576040517f08c379a000000000000000000000000000000000000000000000000000000000815260040161093690613a42565b60405180910390fd5b6000835167ffffffffffffffff81111561095c5761095b612ded565b5b60405190808252806020026020018201604052801561098a5781602001602082028036833780820191505090505b50905060005b8451811015610a07576109d78582815181106109af576109ae613a62565b5b60200260200101518583815181106109ca576109c9613a62565b5b6020026020010151610588565b8282815181106109ea576109e9613a62565b5b60200260200101818152505080610a0090613ac0565b9050610990565b508091505092915050565b600080610a1e83610c91565b119050919050565b6000600460009054906101000a900460ff16905090565b610a45610f91565b73ffffffffffffffffffffffffffffffffffffffff168373ffffffffffffffffffffffffffffffffffffffff161480610a8b5750610a8a83610a85610f91565b610d17565b5b610aca576040517f08c379a0000000000000000000000000000000000000000000000000000000008152600401610ac19061391e565b60405180910390fd5b610ad58383836114e1565b505050565b7f7804d923f43a17d325d77e781528e0793b2edd9890ab45fc64efd7b4b427744c81565b7f65d7a28e3265b37a6474929f336521b332c1681b933f6cb9f3376673440d862a610b2881610f63565b610b306117b0565b50565b610b4f8183600160405180602001604052806000815250611813565b610b5960066119c4565b6001600760008373ffffffffffffffffffffffffffffffffffffffff1673ffffffffffffffffffffffffffffffffffffffff16815260200190815260200160002060008481526020019081526020016000206000828254610bba9190613b09565b925050819055508073ffffffffffffffffffffffffffffffffffffffff16827fa053f2a7eceda47dde76e5939c5adf7b771e665fc84c8ef6feffc290a1eb1feb60405160405180910390a35050565b60006003600084815260200190815260200160002060000160008373ffffffffffffffffffffffffffffffffffffffff1673ffffffffffffffffffffffffffffffffffffffff16815260200190815260200160002060009054906101000a900460ff16905092915050565b6000801b81565b610c8d610c86610f91565b83836119da565b5050565b600060056000838152602001908152602001600020549050919050565b7f9f2df0fed2c77648de5860a4cc508cd0818c85b8b8a1ab4ceeef8d981c8956a681565b610cdb82610753565b610ce481610f63565b610cee838361139c565b505050565b7f65d7a28e3265b37a6474929f336521b332c1681b933f6cb9f3376673440d862a81565b6000600160008473ffffffffffffffffffffffffffffffffffffffff1673ffffffffffffffffffffffffffffffffffffffff16815260200190815260200160002060008373ffffffffffffffffffffffffffffffffffffffff1673ffffffffffffffffffffffffffffffffffffffff16815260200190815260200160002060009054906101000a900460ff16905092915050565b610db3610f91565b73ffffffffffffffffffffffffffffffffffffffff168573ffffffffffffffffffffffffffffffffffffffff161480610df95750610df885610df3610f91565b610d17565b5b610e38576040517f08c379a0000000000000000000000000000000000000000000000000000000008152600401610e2f9061391e565b60405180910390fd5b610e458585858585611b47565b5050505050565b610e54610f91565b73ffffffffffffffffffffffffffffffffffffffff168373ffffffffffffffffffffffffffffffffffffffff161480610e9a5750610e9983610e94610f91565b610d17565b5b610ed9576040517f08c379a0000000000000000000000000000000000000000000000000000000008152600401610ed09061391e565b60405180910390fd5b610ee4838383611de3565b505050565b60007f7965db0b000000000000000000000000000000000000000000000000000000007bffffffffffffffffffffffffffffffffffffffffffffffffffffffff1916827bffffffffffffffffffffffffffffffffffffffffffffffffffffffff19161480610f5c5750610f5b8261202a565b5b9050919050565b610f7481610f6f610f91565b61210c565b50565b8060029080519060200190610f8d929190612b62565b5050565b600033905090565b8151835114610fdd576040517f08c379a0000000000000000000000000000000000000000000000000000000008152600401610fd490613bd1565b60405180910390fd5b600073ffffffffffffffffffffffffffffffffffffffff168473ffffffffffffffffffffffffffffffffffffffff16141561104d576040517f08c379a000000000000000000000000000000000000000000000000000000000815260040161104490613c63565b60405180910390fd5b6000611057610f91565b9050611067818787878787612191565b60005b845181101561121857600085828151811061108857611087613a62565b5b6020026020010151905060008583815181106110a7576110a6613a62565b5b60200260200101519050600080600084815260200190815260200160002060008b73ffffffffffffffffffffffffffffffffffffffff1673ffffffffffffffffffffffffffffffffffffffff16815260200190815260200160002054905081811015611148576040517f08c379a000000000000000000000000000000000000000000000000000000000815260040161113f90613cf5565b60405180910390fd5b81810360008085815260200190815260200160002060008c73ffffffffffffffffffffffffffffffffffffffff1673ffffffffffffffffffffffffffffffffffffffff168152602001908152602001600020819055508160008085815260200190815260200160002060008b73ffffffffffffffffffffffffffffffffffffffff1673ffffffffffffffffffffffffffffffffffffffff16815260200190815260200160002060008282546111fd9190613b09565b925050819055505050508061121190613ac0565b905061106a565b508473ffffffffffffffffffffffffffffffffffffffff168673ffffffffffffffffffffffffffffffffffffffff168273ffffffffffffffffffffffffffffffffffffffff167f4a39dc06d4c0dbc64b70af90fd698a233a518aa5d07e595d983b8c0526c8f7fb878760405161128f929190613d15565b60405180910390a46112a58187878787876121af565b6112b38187878787876121b7565b505050505050565b6112c58282610c09565b6113985760016003600084815260200190815260200160002060000160008373ffffffffffffffffffffffffffffffffffffffff1673ffffffffffffffffffffffffffffffffffffffff16815260200190815260200160002060006101000a81548160ff02191690831515021790555061133d610f91565b73ffffffffffffffffffffffffffffffffffffffff168173ffffffffffffffffffffffffffffffffffffffff16837f2f8788117e7eff1d82e926ec794901d17c78024a50270940304540a733656f0d60405160405180910390a45b5050565b6113a68282610c09565b1561147a5760006003600084815260200190815260200160002060000160008373ffffffffffffffffffffffffffffffffffffffff1673ffffffffffffffffffffffffffffffffffffffff16815260200190815260200160002060006101000a81548160ff02191690831515021790555061141f610f91565b73ffffffffffffffffffffffffffffffffffffffff168173ffffffffffffffffffffffffffffffffffffffff16837ff6391f5c32d9c69d2a47ea670b442974b53935d1edc7fd64eb21e047a839171b60405160405180910390a45b5050565b61148661239e565b6000600460006101000a81548160ff0219169083151502179055507f5db9ee0a495bf2e6ff9c91a7834c1ba4fdd244a5e8aa4e537bd38aeae4b073aa6114ca610f91565b6040516114d79190613d5b565b60405180910390a1565b600073ffffffffffffffffffffffffffffffffffffffff168373ffffffffffffffffffffffffffffffffffffffff161415611551576040517f08c379a000000000000000000000000000000000000000000000000000000000815260040161154890613de8565b60405180910390fd5b8051825114611595576040517f08c379a000000000000000000000000000000000000000000000000000000000815260040161158c90613bd1565b60405180910390fd5b600061159f610f91565b90506115bf81856000868660405180602001604052806000815250612191565b60005b835181101561170c5760008482815181106115e0576115df613a62565b5b6020026020010151905060008483815181106115ff576115fe613a62565b5b60200260200101519050600080600084815260200190815260200160002060008973ffffffffffffffffffffffffffffffffffffffff1673ffffffffffffffffffffffffffffffffffffffff168152602001908152602001600020549050818110156116a0576040517f08c379a000000000000000000000000000000000000000000000000000000000815260040161169790613e7a565b60405180910390fd5b81810360008085815260200190815260200160002060008a73ffffffffffffffffffffffffffffffffffffffff1673ffffffffffffffffffffffffffffffffffffffff16815260200190815260200160002081905550505050808061170490613ac0565b9150506115c2565b50600073ffffffffffffffffffffffffffffffffffffffff168473ffffffffffffffffffffffffffffffffffffffff168273ffffffffffffffffffffffffffffffffffffffff167f4a39dc06d4c0dbc64b70af90fd698a233a518aa5d07e595d983b8c0526c8f7fb8686604051611784929190613d15565b60405180910390a46117aa818560008686604051806020016040528060008152506121af565b50505050565b6117b86123e7565b6001600460006101000a81548160ff0219169083151502179055507f62e78cea01bee320cd4e420270b5ea74000d11b0c9f74754ebdbfc544b05a2586117fc610f91565b6040516118099190613d5b565b60405180910390a1565b600073ffffffffffffffffffffffffffffffffffffffff168473ffffffffffffffffffffffffffffffffffffffff161415611883576040517f08c379a000000000000000000000000000000000000000000000000000000000815260040161187a90613f0c565b60405180910390fd5b600061188d610f91565b9050600061189a85612431565b905060006118a785612431565b90506118b883600089858589612191565b8460008088815260200190815260200160002060008973ffffffffffffffffffffffffffffffffffffffff1673ffffffffffffffffffffffffffffffffffffffff16815260200190815260200160002060008282546119179190613b09565b925050819055508673ffffffffffffffffffffffffffffffffffffffff16600073ffffffffffffffffffffffffffffffffffffffff168473ffffffffffffffffffffffffffffffffffffffff167fc3d58168c5ae7397731d063d5bbf3d657854427343f4c083240f7aacaa2d0f628989604051611995929190613f2c565b60405180910390a46119ac836000898585896121af565b6119bb836000898989896124ab565b50505050505050565b6001816000016000828254019250508190555050565b8173ffffffffffffffffffffffffffffffffffffffff168373ffffffffffffffffffffffffffffffffffffffff161415611a49576040517f08c379a0000000000000000000000000000000000000000000000000000000008152600401611a4090613fc7565b60405180910390fd5b80600160008573ffffffffffffffffffffffffffffffffffffffff1673ffffffffffffffffffffffffffffffffffffffff16815260200190815260200160002060008473ffffffffffffffffffffffffffffffffffffffff1673ffffffffffffffffffffffffffffffffffffffff16815260200190815260200160002060006101000a81548160ff0219169083151502179055508173ffffffffffffffffffffffffffffffffffffffff168373ffffffffffffffffffffffffffffffffffffffff167f17307eab39ab6107e8899845ad3d59bd9653f200f220920489ca2b5937696c3183604051611b3a9190612db7565b60405180910390a3505050565b600073ffffffffffffffffffffffffffffffffffffffff168473ffffffffffffffffffffffffffffffffffffffff161415611bb7576040517f08c379a0000000000000000000000000000000000000000000000000000000008152600401611bae90613c63565b60405180910390fd5b6000611bc1610f91565b90506000611bce85612431565b90506000611bdb85612431565b9050611beb838989858589612191565b600080600088815260200190815260200160002060008a73ffffffffffffffffffffffffffffffffffffffff1673ffffffffffffffffffffffffffffffffffffffff16815260200190815260200160002054905085811015611c82576040517f08c379a0000000000000000000000000000000000000000000000000000000008152600401611c7990613cf5565b60405180910390fd5b85810360008089815260200190815260200160002060008b73ffffffffffffffffffffffffffffffffffffffff1673ffffffffffffffffffffffffffffffffffffffff168152602001908152602001600020819055508560008089815260200190815260200160002060008a73ffffffffffffffffffffffffffffffffffffffff1673ffffffffffffffffffffffffffffffffffffffff1681526020019081526020016000206000828254611d379190613b09565b925050819055508773ffffffffffffffffffffffffffffffffffffffff168973ffffffffffffffffffffffffffffffffffffffff168573ffffffffffffffffffffffffffffffffffffffff167fc3d58168c5ae7397731d063d5bbf3d657854427343f4c083240f7aacaa2d0f628a8a604051611db4929190613f2c565b60405180910390a4611dca848a8a86868a6121af565b611dd8848a8a8a8a8a6124ab565b505050505050505050565b600073ffffffffffffffffffffffffffffffffffffffff168373ffffffffffffffffffffffffffffffffffffffff161415611e53576040517f08c379a0000000000000000000000000000000000000000000000000000000008152600401611e4a90613de8565b60405180910390fd5b6000611e5d610f91565b90506000611e6a84612431565b90506000611e7784612431565b9050611e9783876000858560405180602001604052806000815250612191565b600080600087815260200190815260200160002060008873ffffffffffffffffffffffffffffffffffffffff1673ffffffffffffffffffffffffffffffffffffffff16815260200190815260200160002054905084811015611f2e576040517f08c379a0000000000000000000000000000000000000000000000000000000008152600401611f2590613e7a565b60405180910390fd5b84810360008088815260200190815260200160002060008973ffffffffffffffffffffffffffffffffffffffff1673ffffffffffffffffffffffffffffffffffffffff16815260200190815260200160002081905550600073ffffffffffffffffffffffffffffffffffffffff168773ffffffffffffffffffffffffffffffffffffffff168573ffffffffffffffffffffffffffffffffffffffff167fc3d58168c5ae7397731d063d5bbf3d657854427343f4c083240f7aacaa2d0f628989604051611ffb929190613f2c565b60405180910390a4612021848860008686604051806020016040528060008152506121af565b50505050505050565b60007fd9b67a26000000000000000000000000000000000000000000000000000000007bffffffffffffffffffffffffffffffffffffffffffffffffffffffff1916827bffffffffffffffffffffffffffffffffffffffffffffffffffffffff191614806120f557507f0e89341c000000000000000000000000000000000000000000000000000000007bffffffffffffffffffffffffffffffffffffffffffffffffffffffff1916827bffffffffffffffffffffffffffffffffffffffffffffffffffffffff1916145b80612105575061210482612692565b5b9050919050565b6121168282610c09565b61218d57612123816126fc565b6121318360001c6020612729565b6040516020016121429291906140bb565b6040516020818303038152906040526040517f08c379a00000000000000000000000000000000000000000000000000000000081526004016121849190613016565b60405180910390fd5b5050565b6121996123e7565b6121a7868686868686612965565b505050505050565b505050505050565b6121d68473ffffffffffffffffffffffffffffffffffffffff16612b37565b15612396578373ffffffffffffffffffffffffffffffffffffffff1663bc197c8187878686866040518663ffffffff1660e01b815260040161221c95949392919061414a565b602060405180830381600087803b15801561223657600080fd5b505af192505050801561226757506040513d601f19601f8201168201806040525081019061226491906141c7565b60015b61230d57612273614201565b806308c379a014156122d05750612288614223565b8061229357506122d2565b806040517f08c379a00000000000000000000000000000000000000000000000000000000081526004016122c79190613016565b60405180910390fd5b505b6040517f08c379a00000000000000000000000000000000000000000000000000000000081526004016123049061432b565b60405180910390fd5b63bc197c8160e01b7bffffffffffffffffffffffffffffffffffffffffffffffffffffffff1916817bffffffffffffffffffffffffffffffffffffffffffffffffffffffff191614612394576040517f08c379a000000000000000000000000000000000000000000000000000000000815260040161238b906143bd565b60405180910390fd5b505b505050505050565b6123a6610a26565b6123e5576040517f08c379a00000000000000000000000000000000000000000000000000000000081526004016123dc90614429565b60405180910390fd5b565b6123ef610a26565b1561242f576040517f08c379a000000000000000000000000000000000000000000000000000000000815260040161242690614495565b60405180910390fd5b565b60606000600167ffffffffffffffff8111156124505761244f612ded565b5b60405190808252806020026020018201604052801561247e5781602001602082028036833780820191505090505b509050828160008151811061249657612495613a62565b5b60200260200101818152505080915050919050565b6124ca8473ffffffffffffffffffffffffffffffffffffffff16612b37565b1561268a578373ffffffffffffffffffffffffffffffffffffffff1663f23a6e6187878686866040518663ffffffff1660e01b81526004016125109594939291906144b5565b602060405180830381600087803b15801561252a57600080fd5b505af192505050801561255b57506040513d601f19601f8201168201806040525081019061255891906141c7565b60015b61260157612567614201565b806308c379a014156125c4575061257c614223565b8061258757506125c6565b806040517f08c379a00000000000000000000000000000000000000000000000000000000081526004016125bb9190613016565b60405180910390fd5b505b6040517f08c379a00000000000000000000000000000000000000000000000000000000081526004016125f89061432b565b60405180910390fd5b63f23a6e6160e01b7bffffffffffffffffffffffffffffffffffffffffffffffffffffffff1916817bffffffffffffffffffffffffffffffffffffffffffffffffffffffff191614612688576040517f08c379a000000000000000000000000000000000000000000000000000000000815260040161267f906143bd565b60405180910390fd5b505b505050505050565b60007f01ffc9a7000000000000000000000000000000000000000000000000000000007bffffffffffffffffffffffffffffffffffffffffffffffffffffffff1916827bffffffffffffffffffffffffffffffffffffffffffffffffffffffff1916149050919050565b60606127228273ffffffffffffffffffffffffffffffffffffffff16601460ff16612729565b9050919050565b60606000600283600261273c919061450f565b6127469190613b09565b67ffffffffffffffff81111561275f5761275e612ded565b5b6040519080825280601f01601f1916602001820160405280156127915781602001600182028036833780820191505090505b5090507f3000000000000000000000000000000000000000000000000000000000000000816000815181106127c9576127c8613a62565b5b60200101907effffffffffffffffffffffffffffffffffffffffffffffffffffffffffffff1916908160001a9053507f78000000000000000000000000000000000000000000000000000000000000008160018151811061282d5761282c613a62565b5b60200101907effffffffffffffffffffffffffffffffffffffffffffffffffffffffffffff1916908160001a9053506000600184600261286d919061450f565b6128779190613b09565b90505b6001811115612917577f3031323334353637383961626364656600000000000000000000000000000000600f8616601081106128b9576128b8613a62565b5b1a60f81b8282815181106128d0576128cf613a62565b5b60200101907effffffffffffffffffffffffffffffffffffffffffffffffffffffffffffff1916908160001a905350600485901c94508061291090614569565b905061287a565b506000841461295b576040517f08c379a0000000000000000000000000000000000000000000000000000000008152600401612952906145df565b60405180910390fd5b8091505092915050565b612973868686868686612b5a565b600073ffffffffffffffffffffffffffffffffffffffff168573ffffffffffffffffffffffffffffffffffffffff161415612a255760005b8351811015612a23578281815181106129c7576129c6613a62565b5b6020026020010151600560008684815181106129e6576129e5613a62565b5b602002602001015181526020019081526020016000206000828254612a0b9190613b09565b9250508190555080612a1c90613ac0565b90506129ab565b505b600073ffffffffffffffffffffffffffffffffffffffff168473ffffffffffffffffffffffffffffffffffffffff161415612b2f5760005b8351811015612b2d576000848281518110612a7b57612a7a613a62565b5b602002602001015190506000848381518110612a9a57612a99613a62565b5b6020026020010151905060006005600084815260200190815260200160002054905081811015612aff576040517f08c379a0000000000000000000000000000000000000000000000000000000008152600401612af690614671565b60405180910390fd5b818103600560008581526020019081526020016000208190555050505080612b2690613ac0565b9050612a5d565b505b505050505050565b6000808273ffffffffffffffffffffffffffffffffffffffff163b119050919050565b505050505050565b828054612b6e9061387a565b90600052602060002090601f016020900481019282612b905760008555612bd7565b82601f10612ba957805160ff1916838001178555612bd7565b82800160010185558215612bd7579182015b82811115612bd6578251825591602001919060010190612bbb565b5b509050612be49190612be8565b5090565b5b80821115612c01576000816000905550600101612be9565b5090565b6000604051905090565b600080fd5b600080fd5b600073ffffffffffffffffffffffffffffffffffffffff82169050919050565b6000612c4482612c19565b9050919050565b612c5481612c39565b8114612c5f57600080fd5b50565b600081359050612c7181612c4b565b92915050565b6000819050919050565b612c8a81612c77565b8114612c9557600080fd5b50565b600081359050612ca781612c81565b92915050565b60008060408385031215612cc457612cc3612c0f565b5b6000612cd285828601612c62565b9250506020612ce385828601612c98565b9150509250929050565b612cf681612c77565b82525050565b6000602082019050612d116000830184612ced565b92915050565b60007fffffffff0000000000000000000000000000000000000000000000000000000082169050919050565b612d4c81612d17565b8114612d5757600080fd5b50565b600081359050612d6981612d43565b92915050565b600060208284031215612d8557612d84612c0f565b5b6000612d9384828501612d5a565b91505092915050565b60008115159050919050565b612db181612d9c565b82525050565b6000602082019050612dcc6000830184612da8565b92915050565b600080fd5b600080fd5b6000601f19601f8301169050919050565b7f4e487b7100000000000000000000000000000000000000000000000000000000600052604160045260246000fd5b612e2582612ddc565b810181811067ffffffffffffffff82111715612e4457612e43612ded565b5b80604052505050565b6000612e57612c05565b9050612e638282612e1c565b919050565b600067ffffffffffffffff821115612e8357612e82612ded565b5b612e8c82612ddc565b9050602081019050919050565b82818337600083830152505050565b6000612ebb612eb684612e68565b612e4d565b905082815260208101848484011115612ed757612ed6612dd7565b5b612ee2848285612e99565b509392505050565b600082601f830112612eff57612efe612dd2565b5b8135612f0f848260208601612ea8565b91505092915050565b600060208284031215612f2e57612f2d612c0f565b5b600082013567ffffffffffffffff811115612f4c57612f4b612c14565b5b612f5884828501612eea565b91505092915050565b600060208284031215612f7757612f76612c0f565b5b6000612f8584828501612c98565b91505092915050565b600081519050919050565b600082825260208201905092915050565b60005b83811015612fc8578082015181840152602081019050612fad565b83811115612fd7576000848401525b50505050565b6000612fe882612f8e565b612ff28185612f99565b9350613002818560208601612faa565b61300b81612ddc565b840191505092915050565b600060208201905081810360008301526130308184612fdd565b905092915050565b6000819050919050565b61304b81613038565b811461305657600080fd5b50565b60008135905061306881613042565b92915050565b60006020828403121561308457613083612c0f565b5b600061309284828501613059565b91505092915050565b6130a481613038565b82525050565b60006020820190506130bf600083018461309b565b92915050565b600067ffffffffffffffff8211156130e0576130df612ded565b5b602082029050602081019050919050565b600080fd5b6000613109613104846130c5565b612e4d565b9050808382526020820190506020840283018581111561312c5761312b6130f1565b5b835b8181101561315557806131418882612c98565b84526020840193505060208101905061312e565b5050509392505050565b600082601f83011261317457613173612dd2565b5b81356131848482602086016130f6565b91505092915050565b600067ffffffffffffffff8211156131a8576131a7612ded565b5b6131b182612ddc565b9050602081019050919050565b60006131d16131cc8461318d565b612e4d565b9050828152602081018484840111156131ed576131ec612dd7565b5b6131f8848285612e99565b509392505050565b600082601f83011261321557613214612dd2565b5b81356132258482602086016131be565b91505092915050565b600080600080600060a0868803121561324a57613249612c0f565b5b600061325888828901612c62565b955050602061326988828901612c62565b945050604086013567ffffffffffffffff81111561328a57613289612c14565b5b6132968882890161315f565b935050606086013567ffffffffffffffff8111156132b7576132b6612c14565b5b6132c38882890161315f565b925050608086013567ffffffffffffffff8111156132e4576132e3612c14565b5b6132f088828901613200565b9150509295509295909350565b6000806040838503121561331457613313612c0f565b5b600061332285828601613059565b925050602061333385828601612c62565b9150509250929050565b600067ffffffffffffffff82111561335857613357612ded565b5b602082029050602081019050919050565b600061337c6133778461333d565b612e4d565b9050808382526020820190506020840283018581111561339f5761339e6130f1565b5b835b818110156133c857806133b48882612c62565b8452602084019350506020810190506133a1565b5050509392505050565b600082601f8301126133e7576133e6612dd2565b5b81356133f7848260208601613369565b91505092915050565b6000806040838503121561341757613416612c0f565b5b600083013567ffffffffffffffff81111561343557613434612c14565b5b613441858286016133d2565b925050602083013567ffffffffffffffff81111561346257613461612c14565b5b61346e8582860161315f565b9150509250929050565b600081519050919050565b600082825260208201905092915050565b6000819050602082019050919050565b6134ad81612c77565b82525050565b60006134bf83836134a4565b60208301905092915050565b6000602082019050919050565b60006134e382613478565b6134ed8185613483565b93506134f883613494565b8060005b8381101561352957815161351088826134b3565b975061351b836134cb565b9250506001810190506134fc565b5085935050505092915050565b6000602082019050818103600083015261355081846134d8565b905092915050565b60008060006060848603121561357157613570612c0f565b5b600061357f86828701612c62565b935050602084013567ffffffffffffffff8111156135a05761359f612c14565b5b6135ac8682870161315f565b925050604084013567ffffffffffffffff8111156135cd576135cc612c14565b5b6135d98682870161315f565b9150509250925092565b600080604083850312156135fa576135f9612c0f565b5b600061360885828601612c98565b925050602061361985828601612c62565b9150509250929050565b61362c81612d9c565b811461363757600080fd5b50565b60008135905061364981613623565b92915050565b6000806040838503121561366657613665612c0f565b5b600061367485828601612c62565b92505060206136858582860161363a565b9150509250929050565b600080604083850312156136a6576136a5612c0f565b5b60006136b485828601612c62565b92505060206136c585828601612c62565b9150509250929050565b600080600080600060a086880312156136eb576136ea612c0f565b5b60006136f988828901612c62565b955050602061370a88828901612c62565b945050604061371b88828901612c98565b935050606061372c88828901612c98565b925050608086013567ffffffffffffffff81111561374d5761374c612c14565b5b61375988828901613200565b9150509295509295909350565b60008060006060848603121561377f5761377e612c0f565b5b600061378d86828701612c62565b935050602061379e86828701612c98565b92505060406137af86828701612c98565b9150509250925092565b7f455243313135353a2061646472657373207a65726f206973206e6f742061207660008201527f616c6964206f776e657200000000000000000000000000000000000000000000602082015250565b6000613815602a83612f99565b9150613820826137b9565b604082019050919050565b6000602082019050818103600083015261384481613808565b9050919050565b7f4e487b7100000000000000000000000000000000000000000000000000000000600052602260045260246000fd5b6000600282049050600182168061389257607f821691505b602082108114156138a6576138a561384b565b5b50919050565b7f455243313135353a2063616c6c6572206973206e6f7420746f6b656e206f776e60008201527f6572206f7220617070726f766564000000000000000000000000000000000000602082015250565b6000613908602e83612f99565b9150613913826138ac565b604082019050919050565b60006020820190508181036000830152613937816138fb565b9050919050565b7f416363657373436f6e74726f6c3a2063616e206f6e6c792072656e6f756e636560008201527f20726f6c657320666f722073656c660000000000000000000000000000000000602082015250565b600061399a602f83612f99565b91506139a58261393e565b604082019050919050565b600060208201905081810360008301526139c98161398d565b9050919050565b7f455243313135353a206163636f756e747320616e6420696473206c656e67746860008201527f206d69736d617463680000000000000000000000000000000000000000000000602082015250565b6000613a2c602983612f99565b9150613a37826139d0565b604082019050919050565b60006020820190508181036000830152613a5b81613a1f565b9050919050565b7f4e487b7100000000000000000000000000000000000000000000000000000000600052603260045260246000fd5b7f4e487b7100000000000000000000000000000000000000000000000000000000600052601160045260246000fd5b6000613acb82612c77565b91507fffffffffffffffffffffffffffffffffffffffffffffffffffffffffffffffff821415613afe57613afd613a91565b5b600182019050919050565b6000613b1482612c77565b9150613b1f83612c77565b9250827fffffffffffffffffffffffffffffffffffffffffffffffffffffffffffffffff03821115613b5457613b53613a91565b5b828201905092915050565b7f455243313135353a2069647320616e6420616d6f756e7473206c656e6774682060008201527f6d69736d61746368000000000000000000000000000000000000000000000000602082015250565b6000613bbb602883612f99565b9150613bc682613b5f565b604082019050919050565b60006020820190508181036000830152613bea81613bae565b9050919050565b7f455243313135353a207472616e7366657220746f20746865207a65726f20616460008201527f6472657373000000000000000000000000000000000000000000000000000000602082015250565b6000613c4d602583612f99565b9150613c5882613bf1565b604082019050919050565b60006020820190508181036000830152613c7c81613c40565b9050919050565b7f455243313135353a20696e73756666696369656e742062616c616e636520666f60008201527f72207472616e7366657200000000000000000000000000000000000000000000602082015250565b6000613cdf602a83612f99565b9150613cea82613c83565b604082019050919050565b60006020820190508181036000830152613d0e81613cd2565b9050919050565b60006040820190508181036000830152613d2f81856134d8565b90508181036020830152613d4381846134d8565b90509392505050565b613d5581612c39565b82525050565b6000602082019050613d706000830184613d4c565b92915050565b7f455243313135353a206275726e2066726f6d20746865207a65726f206164647260008201527f6573730000000000000000000000000000000000000000000000000000000000602082015250565b6000613dd2602383612f99565b9150613ddd82613d76565b604082019050919050565b60006020820190508181036000830152613e0181613dc5565b9050919050565b7f455243313135353a206275726e20616d6f756e7420657863656564732062616c60008201527f616e636500000000000000000000000000000000000000000000000000000000602082015250565b6000613e64602483612f99565b9150613e6f82613e08565b604082019050919050565b60006020820190508181036000830152613e9381613e57565b9050919050565b7f455243313135353a206d696e7420746f20746865207a65726f2061646472657360008201527f7300000000000000000000000000000000000000000000000000000000000000602082015250565b6000613ef6602183612f99565b9150613f0182613e9a565b604082019050919050565b60006020820190508181036000830152613f2581613ee9565b9050919050565b6000604082019050613f416000830185612ced565b613f4e6020830184612ced565b9392505050565b7f455243313135353a2073657474696e6720617070726f76616c2073746174757360008201527f20666f722073656c660000000000000000000000000000000000000000000000602082015250565b6000613fb1602983612f99565b9150613fbc82613f55565b604082019050919050565b60006020820190508181036000830152613fe081613fa4565b9050919050565b600081905092915050565b7f416363657373436f6e74726f6c3a206163636f756e7420000000000000000000600082015250565b6000614028601783613fe7565b915061403382613ff2565b601782019050919050565b600061404982612f8e565b6140538185613fe7565b9350614063818560208601612faa565b80840191505092915050565b7f206973206d697373696e6720726f6c6520000000000000000000000000000000600082015250565b60006140a5601183613fe7565b91506140b08261406f565b601182019050919050565b60006140c68261401b565b91506140d2828561403e565b91506140dd82614098565b91506140e9828461403e565b91508190509392505050565b600081519050919050565b600082825260208201905092915050565b600061411c826140f5565b6141268185614100565b9350614136818560208601612faa565b61413f81612ddc565b840191505092915050565b600060a08201905061415f6000830188613d4c565b61416c6020830187613d4c565b818103604083015261417e81866134d8565b9050818103606083015261419281856134d8565b905081810360808301526141a68184614111565b90509695505050505050565b6000815190506141c181612d43565b92915050565b6000602082840312156141dd576141dc612c0f565b5b60006141eb848285016141b2565b91505092915050565b60008160e01c9050919050565b600060033d11156142205760046000803e61421d6000516141f4565b90505b90565b600060443d1015614233576142b6565b61423b612c05565b60043d036004823e80513d602482011167ffffffffffffffff821117156142635750506142b6565b808201805167ffffffffffffffff81111561428157505050506142b6565b80602083010160043d03850181111561429e5750505050506142b6565b6142ad82602001850186612e1c565b82955050505050505b90565b7f455243313135353a207472616e7366657220746f206e6f6e2d4552433131353560008201527f526563656976657220696d706c656d656e746572000000000000000000000000602082015250565b6000614315603483612f99565b9150614320826142b9565b604082019050919050565b6000602082019050818103600083015261434481614308565b9050919050565b7f455243313135353a204552433131353552656365697665722072656a6563746560008201527f6420746f6b656e73000000000000000000000000000000000000000000000000602082015250565b60006143a7602883612f99565b91506143b28261434b565b604082019050919050565b600060208201905081810360008301526143d68161439a565b9050919050565b7f5061757361626c653a206e6f7420706175736564000000000000000000000000600082015250565b6000614413601483612f99565b915061441e826143dd565b602082019050919050565b6000602082019050818103600083015261444281614406565b9050919050565b7f5061757361626c653a2070617573656400000000000000000000000000000000600082015250565b600061447f601083612f99565b915061448a82614449565b602082019050919050565b600060208201905081810360008301526144ae81614472565b9050919050565b600060a0820190506144ca6000830188613d4c565b6144d76020830187613d4c565b6144e46040830186612ced565b6144f16060830185612ced565b81810360808301526145038184614111565b90509695505050505050565b600061451a82612c77565b915061452583612c77565b9250817fffffffffffffffffffffffffffffffffffffffffffffffffffffffffffffffff048311821515161561455e5761455d613a91565b5b828202905092915050565b600061457482612c77565b9150600082141561458857614587613a91565b5b600182039050919050565b7f537472696e67733a20686578206c656e67746820696e73756666696369656e74600082015250565b60006145c9602083612f99565b91506145d482614593565b602082019050919050565b600060208201905081810360008301526145f8816145bc565b9050919050565b7f455243313135353a206275726e20616d6f756e74206578636565647320746f7460008201527f616c537570706c79000000000000000000000000000000000000000000000000602082015250565b600061465b602883612f99565b9150614666826145ff565b604082019050919050565b6000602082019050818103600083015261468a8161464e565b905091905056fea26469706673582212200be41b177165265c7795d32f81a7dfae6947c27ec6018905de6f57d9a096d44864736f6c63430008090033",
  "devdoc": {
    "custom:security-contact": "code@dirtroad.dev",
    "kind": "dev",
    "methods": {
      "balanceOf(address,uint256)": {
        "details": "See {IERC1155-balanceOf}. Requirements: - `account` cannot be the zero address."
      },
      "balanceOfBatch(address[],uint256[])": {
        "details": "See {IERC1155-balanceOfBatch}. Requirements: - `accounts` and `ids` must have the same length."
      },
      "exists(uint256)": {
        "details": "Indicates whether any token exist with a given id, or not."
      },
      "getRoleAdmin(bytes32)": {
        "details": "Returns the admin role that controls `role`. See {grantRole} and {revokeRole}. To change a role's admin, use {_setRoleAdmin}."
      },
      "grantRole(bytes32,address)": {
        "details": "Grants `role` to `account`. If `account` had not been already granted `role`, emits a {RoleGranted} event. Requirements: - the caller must have ``role``'s admin role. May emit a {RoleGranted} event."
      },
      "hasRole(bytes32,address)": {
        "details": "Returns `true` if `account` has been granted `role`."
      },
      "isApprovedForAll(address,address)": {
        "details": "See {IERC1155-isApprovedForAll}."
      },
      "paused()": {
        "details": "Returns true if the contract is paused, and false otherwise."
      },
      "renounceRole(bytes32,address)": {
        "details": "Revokes `role` from the calling account. Roles are often managed via {grantRole} and {revokeRole}: this function's purpose is to provide a mechanism for accounts to lose their privileges if they are compromised (such as when a trusted device is misplaced). If the calling account had been revoked `role`, emits a {RoleRevoked} event. Requirements: - the caller must be `account`. May emit a {RoleRevoked} event."
      },
      "revokeRole(bytes32,address)": {
        "details": "Revokes `role` from `account`. If `account` had been granted `role`, emits a {RoleRevoked} event. Requirements: - the caller must have ``role``'s admin role. May emit a {RoleRevoked} event."
      },
      "safeBatchTransferFrom(address,address,uint256[],uint256[],bytes)": {
        "details": "See {IERC1155-safeBatchTransferFrom}."
      },
      "safeTransferFrom(address,address,uint256,uint256,bytes)": {
        "details": "See {IERC1155-safeTransferFrom}."
      },
      "setApprovalForAll(address,bool)": {
        "details": "See {IERC1155-setApprovalForAll}."
      },
      "totalSupply(uint256)": {
        "details": "Total amount of tokens in with a given id."
      },
      "uri(uint256)": {
        "details": "See {IERC1155MetadataURI-uri}. This implementation returns the same URI for *all* token types. It relies on the token type ID substitution mechanism https://eips.ethereum.org/EIPS/eip-1155#metadata[defined in the EIP]. Clients calling this function must replace the `\\{id\\}` substring with the actual token type ID."
      }
    },
    "version": 1
  },
  "userdoc": {
    "kind": "user",
    "methods": {},
    "version": 1
  },
  "storageLayout": {
    "storage": [
      {
        "astId": 576,
        "contract": "contracts/Enemies.sol:Enemies",
        "label": "_balances",
        "offset": 0,
        "slot": "0",
        "type": "t_mapping(t_uint256,t_mapping(t_address,t_uint256))"
      },
      {
        "astId": 582,
        "contract": "contracts/Enemies.sol:Enemies",
        "label": "_operatorApprovals",
        "offset": 0,
        "slot": "1",
        "type": "t_mapping(t_address,t_mapping(t_address,t_bool))"
      },
      {
        "astId": 584,
        "contract": "contracts/Enemies.sol:Enemies",
        "label": "_uri",
        "offset": 0,
        "slot": "2",
        "type": "t_string_storage"
      },
      {
        "astId": 24,
        "contract": "contracts/Enemies.sol:Enemies",
        "label": "_roles",
        "offset": 0,
        "slot": "3",
        "type": "t_mapping(t_bytes32,t_struct(RoleData)19_storage)"
      },
      {
        "astId": 406,
        "contract": "contracts/Enemies.sol:Enemies",
        "label": "_paused",
        "offset": 0,
        "slot": "4",
        "type": "t_bool"
      },
      {
        "astId": 2015,
        "contract": "contracts/Enemies.sol:Enemies",
        "label": "_totalSupply",
        "offset": 0,
        "slot": "5",
        "type": "t_mapping(t_uint256,t_uint256)"
      },
      {
        "astId": 4989,
        "contract": "contracts/Enemies.sol:Enemies",
        "label": "totalDestroyed",
        "offset": 0,
        "slot": "6",
        "type": "t_struct(Counter)3586_storage"
      },
      {
        "astId": 4995,
        "contract": "contracts/Enemies.sol:Enemies",
        "label": "destroyTracking",
        "offset": 0,
        "slot": "7",
        "type": "t_mapping(t_address,t_mapping(t_uint256,t_uint256))"
      }
    ],
    "types": {
      "t_address": {
        "encoding": "inplace",
        "label": "address",
        "numberOfBytes": "20"
      },
      "t_bool": {
        "encoding": "inplace",
        "label": "bool",
        "numberOfBytes": "1"
      },
      "t_bytes32": {
        "encoding": "inplace",
        "label": "bytes32",
        "numberOfBytes": "32"
      },
      "t_mapping(t_address,t_bool)": {
        "encoding": "mapping",
        "key": "t_address",
        "label": "mapping(address => bool)",
        "numberOfBytes": "32",
        "value": "t_bool"
      },
      "t_mapping(t_address,t_mapping(t_address,t_bool))": {
        "encoding": "mapping",
        "key": "t_address",
        "label": "mapping(address => mapping(address => bool))",
        "numberOfBytes": "32",
        "value": "t_mapping(t_address,t_bool)"
      },
      "t_mapping(t_address,t_mapping(t_uint256,t_uint256))": {
        "encoding": "mapping",
        "key": "t_address",
        "label": "mapping(address => mapping(uint256 => uint256))",
        "numberOfBytes": "32",
        "value": "t_mapping(t_uint256,t_uint256)"
      },
      "t_mapping(t_address,t_uint256)": {
        "encoding": "mapping",
        "key": "t_address",
        "label": "mapping(address => uint256)",
        "numberOfBytes": "32",
        "value": "t_uint256"
      },
      "t_mapping(t_bytes32,t_struct(RoleData)19_storage)": {
        "encoding": "mapping",
        "key": "t_bytes32",
        "label": "mapping(bytes32 => struct AccessControl.RoleData)",
        "numberOfBytes": "32",
        "value": "t_struct(RoleData)19_storage"
      },
      "t_mapping(t_uint256,t_mapping(t_address,t_uint256))": {
        "encoding": "mapping",
        "key": "t_uint256",
        "label": "mapping(uint256 => mapping(address => uint256))",
        "numberOfBytes": "32",
        "value": "t_mapping(t_address,t_uint256)"
      },
      "t_mapping(t_uint256,t_uint256)": {
        "encoding": "mapping",
        "key": "t_uint256",
        "label": "mapping(uint256 => uint256)",
        "numberOfBytes": "32",
        "value": "t_uint256"
      },
      "t_string_storage": {
        "encoding": "bytes",
        "label": "string",
        "numberOfBytes": "32"
      },
      "t_struct(Counter)3586_storage": {
        "encoding": "inplace",
        "label": "struct Counters.Counter",
        "members": [
          {
            "astId": 3585,
            "contract": "contracts/Enemies.sol:Enemies",
            "label": "_value",
            "offset": 0,
            "slot": "0",
            "type": "t_uint256"
          }
        ],
        "numberOfBytes": "32"
      },
      "t_struct(RoleData)19_storage": {
        "encoding": "inplace",
        "label": "struct AccessControl.RoleData",
        "members": [
          {
            "astId": 16,
            "contract": "contracts/Enemies.sol:Enemies",
            "label": "members",
            "offset": 0,
            "slot": "0",
            "type": "t_mapping(t_address,t_bool)"
          },
          {
            "astId": 18,
            "contract": "contracts/Enemies.sol:Enemies",
            "label": "adminRole",
            "offset": 0,
            "slot": "1",
            "type": "t_bytes32"
          }
        ],
        "numberOfBytes": "64"
      },
      "t_uint256": {
        "encoding": "inplace",
        "label": "uint256",
        "numberOfBytes": "32"
      }
    }
  }
}