{
  "address": "0xd1400cDe08b8602D73c7e908fC385649B5b10F0C",
  "abi": [
    {
      "inputs": [
        {
          "internalType": "contract IERC20",
          "name": "_gold",
          "type": "address"
        }
      ],
      "stateMutability": "nonpayable",
      "type": "constructor"
    },
    {
      "anonymous": false,
      "inputs": [
        {
          "indexed": true,
          "internalType": "address",
          "name": "account",
          "type": "address"
        },
        {
          "indexed": true,
          "internalType": "address",
          "name": "operator",
          "type": "address"
        },
        {
          "indexed": false,
          "internalType": "bool",
          "name": "approved",
          "type": "bool"
        }
      ],
      "name": "ApprovalForAll",
      "type": "event"
    },
    {
      "anonymous": false,
      "inputs": [
        {
          "indexed": false,
          "internalType": "address",
          "name": "account",
          "type": "address"
        }
      ],
      "name": "Paused",
      "type": "event"
    },
    {
      "anonymous": false,
      "inputs": [
        {
          "indexed": true,
          "internalType": "uint256",
          "name": "tokenId",
          "type": "uint256"
        }
      ],
      "name": "Purchase",
      "type": "event"
    },
    {
      "anonymous": false,
      "inputs": [
        {
          "indexed": true,
          "internalType": "bytes32",
          "name": "role",
          "type": "bytes32"
        },
        {
          "indexed": true,
          "internalType": "bytes32",
          "name": "previousAdminRole",
          "type": "bytes32"
        },
        {
          "indexed": true,
          "internalType": "bytes32",
          "name": "newAdminRole",
          "type": "bytes32"
        }
      ],
      "name": "RoleAdminChanged",
      "type": "event"
    },
    {
      "anonymous": false,
      "inputs": [
        {
          "indexed": true,
          "internalType": "bytes32",
          "name": "role",
          "type": "bytes32"
        },
        {
          "indexed": true,
          "internalType": "address",
          "name": "account",
          "type": "address"
        },
        {
          "indexed": true,
          "internalType": "address",
          "name": "sender",
          "type": "address"
        }
      ],
      "name": "RoleGranted",
      "type": "event"
    },
    {
      "anonymous": false,
      "inputs": [
        {
          "indexed": true,
          "internalType": "bytes32",
          "name": "role",
          "type": "bytes32"
        },
        {
          "indexed": true,
          "internalType": "address",
          "name": "account",
          "type": "address"
        },
        {
          "indexed": true,
          "internalType": "address",
          "name": "sender",
          "type": "address"
        }
      ],
      "name": "RoleRevoked",
      "type": "event"
    },
    {
      "anonymous": false,
      "inputs": [
        {
          "indexed": true,
          "internalType": "address",
          "name": "operator",
          "type": "address"
        },
        {
          "indexed": true,
          "internalType": "address",
          "name": "from",
          "type": "address"
        },
        {
          "indexed": true,
          "internalType": "address",
          "name": "to",
          "type": "address"
        },
        {
          "indexed": false,
          "internalType": "uint256[]",
          "name": "ids",
          "type": "uint256[]"
        },
        {
          "indexed": false,
          "internalType": "uint256[]",
          "name": "values",
          "type": "uint256[]"
        }
      ],
      "name": "TransferBatch",
      "type": "event"
    },
    {
      "anonymous": false,
      "inputs": [
        {
          "indexed": true,
          "internalType": "address",
          "name": "operator",
          "type": "address"
        },
        {
          "indexed": true,
          "internalType": "address",
          "name": "from",
          "type": "address"
        },
        {
          "indexed": true,
          "internalType": "address",
          "name": "to",
          "type": "address"
        },
        {
          "indexed": false,
          "internalType": "uint256",
          "name": "id",
          "type": "uint256"
        },
        {
          "indexed": false,
          "internalType": "uint256",
          "name": "value",
          "type": "uint256"
        }
      ],
      "name": "TransferSingle",
      "type": "event"
    },
    {
      "anonymous": false,
      "inputs": [
        {
          "indexed": false,
          "internalType": "string",
          "name": "value",
          "type": "string"
        },
        {
          "indexed": true,
          "internalType": "uint256",
          "name": "id",
          "type": "uint256"
        }
      ],
      "name": "URI",
      "type": "event"
    },
    {
      "anonymous": false,
      "inputs": [
        {
          "indexed": false,
          "internalType": "address",
          "name": "account",
          "type": "address"
        }
      ],
      "name": "Unpaused",
      "type": "event"
    },
    {
      "inputs": [],
      "name": "DEFAULT_ADMIN_ROLE",
      "outputs": [
        {
          "internalType": "bytes32",
          "name": "",
          "type": "bytes32"
        }
      ],
      "stateMutability": "view",
      "type": "function"
    },
    {
      "inputs": [],
      "name": "MINTER_ROLE",
      "outputs": [
        {
          "internalType": "bytes32",
          "name": "",
          "type": "bytes32"
        }
      ],
      "stateMutability": "view",
      "type": "function"
    },
    {
      "inputs": [],
      "name": "PAUSER_ROLE",
      "outputs": [
        {
          "internalType": "bytes32",
          "name": "",
          "type": "bytes32"
        }
      ],
      "stateMutability": "view",
      "type": "function"
    },
    {
      "inputs": [],
      "name": "URI_SETTER_ROLE",
      "outputs": [
        {
          "internalType": "bytes32",
          "name": "",
          "type": "bytes32"
        }
      ],
      "stateMutability": "view",
      "type": "function"
    },
    {
      "inputs": [
        {
          "internalType": "address",
          "name": "account",
          "type": "address"
        },
        {
          "internalType": "uint256",
          "name": "id",
          "type": "uint256"
        }
      ],
      "name": "balanceOf",
      "outputs": [
        {
          "internalType": "uint256",
          "name": "",
          "type": "uint256"
        }
      ],
      "stateMutability": "view",
      "type": "function"
    },
    {
      "inputs": [
        {
          "internalType": "address[]",
          "name": "accounts",
          "type": "address[]"
        },
        {
          "internalType": "uint256[]",
          "name": "ids",
          "type": "uint256[]"
        }
      ],
      "name": "balanceOfBatch",
      "outputs": [
        {
          "internalType": "uint256[]",
          "name": "",
          "type": "uint256[]"
        }
      ],
      "stateMutability": "view",
      "type": "function"
    },
    {
      "inputs": [
        {
          "internalType": "address",
          "name": "account",
          "type": "address"
        },
        {
          "internalType": "uint256",
          "name": "id",
          "type": "uint256"
        },
        {
          "internalType": "uint256",
          "name": "value",
          "type": "uint256"
        }
      ],
      "name": "burn",
      "outputs": [],
      "stateMutability": "nonpayable",
      "type": "function"
    },
    {
      "inputs": [
        {
          "internalType": "address",
          "name": "account",
          "type": "address"
        },
        {
          "internalType": "uint256[]",
          "name": "ids",
          "type": "uint256[]"
        },
        {
          "internalType": "uint256[]",
          "name": "values",
          "type": "uint256[]"
        }
      ],
      "name": "burnBatch",
      "outputs": [],
      "stateMutability": "nonpayable",
      "type": "function"
    },
    {
      "inputs": [
        {
          "internalType": "uint256",
          "name": "id",
          "type": "uint256"
        }
      ],
      "name": "exists",
      "outputs": [
        {
          "internalType": "bool",
          "name": "",
          "type": "bool"
        }
      ],
      "stateMutability": "view",
      "type": "function"
    },
    {
      "inputs": [
        {
          "internalType": "bytes32",
          "name": "role",
          "type": "bytes32"
        }
      ],
      "name": "getRoleAdmin",
      "outputs": [
        {
          "internalType": "bytes32",
          "name": "",
          "type": "bytes32"
        }
      ],
      "stateMutability": "view",
      "type": "function"
    },
    {
      "inputs": [],
      "name": "gold",
      "outputs": [
        {
          "internalType": "contract IERC20",
          "name": "",
          "type": "address"
        }
      ],
      "stateMutability": "view",
      "type": "function"
    },
    {
      "inputs": [
        {
          "internalType": "bytes32",
          "name": "role",
          "type": "bytes32"
        },
        {
          "internalType": "address",
          "name": "account",
          "type": "address"
        }
      ],
      "name": "grantRole",
      "outputs": [],
      "stateMutability": "nonpayable",
      "type": "function"
    },
    {
      "inputs": [
        {
          "internalType": "bytes32",
          "name": "role",
          "type": "bytes32"
        },
        {
          "internalType": "address",
          "name": "account",
          "type": "address"
        }
      ],
      "name": "hasRole",
      "outputs": [
        {
          "internalType": "bool",
          "name": "",
          "type": "bool"
        }
      ],
      "stateMutability": "view",
      "type": "function"
    },
    {
      "inputs": [
        {
          "internalType": "address",
          "name": "account",
          "type": "address"
        },
        {
          "internalType": "address",
          "name": "operator",
          "type": "address"
        }
      ],
      "name": "isApprovedForAll",
      "outputs": [
        {
          "internalType": "bool",
          "name": "",
          "type": "bool"
        }
      ],
      "stateMutability": "view",
      "type": "function"
    },
    {
      "inputs": [],
      "name": "pause",
      "outputs": [],
      "stateMutability": "nonpayable",
      "type": "function"
    },
    {
      "inputs": [],
      "name": "paused",
      "outputs": [
        {
          "internalType": "bool",
          "name": "",
          "type": "bool"
        }
      ],
      "stateMutability": "view",
      "type": "function"
    },
    {
      "inputs": [
        {
          "internalType": "uint256",
          "name": "",
          "type": "uint256"
        }
      ],
      "name": "prices",
      "outputs": [
        {
          "internalType": "uint256",
          "name": "",
          "type": "uint256"
        }
      ],
      "stateMutability": "view",
      "type": "function"
    },
    {
      "inputs": [
        {
          "internalType": "uint256",
          "name": "tokenId",
          "type": "uint256"
        }
      ],
      "name": "purchase",
      "outputs": [],
      "stateMutability": "nonpayable",
      "type": "function"
    },
    {
      "inputs": [
        {
          "internalType": "bytes32",
          "name": "role",
          "type": "bytes32"
        },
        {
          "internalType": "address",
          "name": "account",
          "type": "address"
        }
      ],
      "name": "renounceRole",
      "outputs": [],
      "stateMutability": "nonpayable",
      "type": "function"
    },
    {
      "inputs": [
        {
          "internalType": "bytes32",
          "name": "role",
          "type": "bytes32"
        },
        {
          "internalType": "address",
          "name": "account",
          "type": "address"
        }
      ],
      "name": "revokeRole",
      "outputs": [],
      "stateMutability": "nonpayable",
      "type": "function"
    },
    {
      "inputs": [
        {
          "internalType": "address",
          "name": "from",
          "type": "address"
        },
        {
          "internalType": "address",
          "name": "to",
          "type": "address"
        },
        {
          "internalType": "uint256[]",
          "name": "ids",
          "type": "uint256[]"
        },
        {
          "internalType": "uint256[]",
          "name": "amounts",
          "type": "uint256[]"
        },
        {
          "internalType": "bytes",
          "name": "data",
          "type": "bytes"
        }
      ],
      "name": "safeBatchTransferFrom",
      "outputs": [],
      "stateMutability": "nonpayable",
      "type": "function"
    },
    {
      "inputs": [
        {
          "internalType": "address",
          "name": "from",
          "type": "address"
        },
        {
          "internalType": "address",
          "name": "to",
          "type": "address"
        },
        {
          "internalType": "uint256",
          "name": "id",
          "type": "uint256"
        },
        {
          "internalType": "uint256",
          "name": "amount",
          "type": "uint256"
        },
        {
          "internalType": "bytes",
          "name": "data",
          "type": "bytes"
        }
      ],
      "name": "safeTransferFrom",
      "outputs": [],
      "stateMutability": "nonpayable",
      "type": "function"
    },
    {
      "inputs": [
        {
          "internalType": "address",
          "name": "operator",
          "type": "address"
        },
        {
          "internalType": "bool",
          "name": "approved",
          "type": "bool"
        }
      ],
      "name": "setApprovalForAll",
      "outputs": [],
      "stateMutability": "nonpayable",
      "type": "function"
    },
    {
      "inputs": [
        {
          "internalType": "string",
          "name": "newuri",
          "type": "string"
        }
      ],
      "name": "setURI",
      "outputs": [],
      "stateMutability": "nonpayable",
      "type": "function"
    },
    {
      "inputs": [
        {
          "internalType": "bytes4",
          "name": "interfaceId",
          "type": "bytes4"
        }
      ],
      "name": "supportsInterface",
      "outputs": [
        {
          "internalType": "bool",
          "name": "",
          "type": "bool"
        }
      ],
      "stateMutability": "view",
      "type": "function"
    },
    {
      "inputs": [
        {
          "internalType": "uint256",
          "name": "id",
          "type": "uint256"
        }
      ],
      "name": "totalSupply",
      "outputs": [
        {
          "internalType": "uint256",
          "name": "",
          "type": "uint256"
        }
      ],
      "stateMutability": "view",
      "type": "function"
    },
    {
      "inputs": [],
      "name": "unpause",
      "outputs": [],
      "stateMutability": "nonpayable",
      "type": "function"
    },
    {
      "inputs": [
        {
          "internalType": "uint256",
          "name": "",
          "type": "uint256"
        }
      ],
      "name": "uri",
      "outputs": [
        {
          "internalType": "string",
          "name": "",
          "type": "string"
        }
      ],
      "stateMutability": "view",
      "type": "function"
    }
  ],
  "transactionHash": "0x6f27539426b2b0df9e0a81508a088b289100bdfb1eb38739b01f8eaeb59cf8fe",
  "args": [
    "0x092Eec89C0175Ddaf210a92d6f9a66B876E4550C"
  ],
  "numDeployments": 1,
  "solcInputHash": "20b738491a3d0227532e3d82e68bf157",
  "bytecode": "0x60806040523480156200001157600080fd5b50604051620052ab380380620052ab833981810160405281019062000037919062000444565b6040518060400160405280600781526020017f697066733a2f2f000000000000000000000000000000000000000000000000008152506200007e816200019560201b60201c565b506000600460006101000a81548160ff0219169083151502179055506001600681905550620000b76000801b33620001b160201b60201c565b620000e97f7804d923f43a17d325d77e781528e0793b2edd9890ab45fc64efd7b4b427744c33620001b160201b60201c565b6200011b7f65d7a28e3265b37a6474929f336521b332c1681b933f6cb9f3376673440d862a33620001b160201b60201c565b6200014d7f9f2df0fed2c77648de5860a4cc508cd0818c85b8b8a1ab4ceeef8d981c8956a633620001b160201b60201c565b80600760006101000a81548173ffffffffffffffffffffffffffffffffffffffff021916908373ffffffffffffffffffffffffffffffffffffffff16021790555050620004db565b8060029080519060200190620001ad92919062000316565b5050565b620001c38282620002a360201b60201c565b6200029f5760016003600084815260200190815260200160002060000160008373ffffffffffffffffffffffffffffffffffffffff1673ffffffffffffffffffffffffffffffffffffffff16815260200190815260200160002060006101000a81548160ff021916908315150217905550620002446200030e60201b60201c565b73ffffffffffffffffffffffffffffffffffffffff168173ffffffffffffffffffffffffffffffffffffffff16837f2f8788117e7eff1d82e926ec794901d17c78024a50270940304540a733656f0d60405160405180910390a45b5050565b60006003600084815260200190815260200160002060000160008373ffffffffffffffffffffffffffffffffffffffff1673ffffffffffffffffffffffffffffffffffffffff16815260200190815260200160002060009054906101000a900460ff16905092915050565b600033905090565b8280546200032490620004a5565b90600052602060002090601f01602090048101928262000348576000855562000394565b82601f106200036357805160ff191683800117855562000394565b8280016001018555821562000394579182015b828111156200039357825182559160200191906001019062000376565b5b509050620003a39190620003a7565b5090565b5b80821115620003c2576000816000905550600101620003a8565b5090565b600080fd5b600073ffffffffffffffffffffffffffffffffffffffff82169050919050565b6000620003f882620003cb565b9050919050565b60006200040c82620003eb565b9050919050565b6200041e81620003ff565b81146200042a57600080fd5b50565b6000815190506200043e8162000413565b92915050565b6000602082840312156200045d576200045c620003c6565b5b60006200046d848285016200042d565b91505092915050565b7f4e487b7100000000000000000000000000000000000000000000000000000000600052602260045260246000fd5b60006002820490506001821680620004be57607f821691505b60208210811415620004d557620004d462000476565b5b50919050565b614dc080620004eb6000396000f3fe608060405234801561001057600080fd5b50600436106101c35760003560e01c80638456cb59116100f9578063d547741f11610097578063efef39a111610071578063efef39a114610516578063f242432a14610532578063f5298aca1461054e578063fbec6f211461056a576101c3565b8063d547741f146104ac578063e63ab1e9146104c8578063e985e9c5146104e6576101c3565b8063a22cb465116100d3578063a22cb46514610412578063bc31c1c11461042e578063bd85b0391461045e578063d53913931461048e576101c3565b80638456cb59146103ba57806391d14854146103c4578063a217fddf146103f4576101c3565b806336568abe116101665780634f558e79116101405780634f558e79146103325780635c975abb146103625780636b20c454146103805780637f3457101461039c576101c3565b806336568abe146102dc5780633f4ba83a146102f85780634e1273f414610302576101c3565b80630e89341c116101a25780630e89341c14610244578063248a9ca3146102745780632eb2c2d6146102a45780632f2ff15d146102c0576101c3565b8062fdd58e146101c857806301ffc9a7146101f857806302fe530514610228575b600080fd5b6101e260048036038101906101dd9190613038565b610588565b6040516101ef9190613087565b60405180910390f35b610212600480360381019061020d91906130fa565b610651565b60405161021f9190613142565b60405180910390f35b610242600480360381019061023d91906132a3565b610663565b005b61025e600480360381019061025991906132ec565b61069a565b60405161026b91906133a1565b60405180910390f35b61028e600480360381019061028991906133f9565b61072e565b60405161029b9190613435565b60405180910390f35b6102be60048036038101906102b991906135b9565b61074e565b005b6102da60048036038101906102d59190613688565b6107ef565b005b6102f660048036038101906102f19190613688565b610810565b005b610300610893565b005b61031c6004803603810190610317919061378b565b6108c8565b60405161032991906138c1565b60405180910390f35b61034c600480360381019061034791906132ec565b6109e1565b6040516103599190613142565b60405180910390f35b61036a6109f5565b6040516103779190613142565b60405180910390f35b61039a600480360381019061039591906138e3565b610a0c565b005b6103a4610aa9565b6040516103b19190613435565b60405180910390f35b6103c2610acd565b005b6103de60048036038101906103d99190613688565b610b02565b6040516103eb9190613142565b60405180910390f35b6103fc610b6d565b6040516104099190613435565b60405180910390f35b61042c6004803603810190610427919061399a565b610b74565b005b610448600480360381019061044391906132ec565b610b8a565b6040516104559190613087565b60405180910390f35b610478600480360381019061047391906132ec565b610ba2565b6040516104859190613087565b60405180910390f35b610496610bbf565b6040516104a39190613435565b60405180910390f35b6104c660048036038101906104c19190613688565b610be3565b005b6104d0610c04565b6040516104dd9190613435565b60405180910390f35b61050060048036038101906104fb91906139da565b610c28565b60405161050d9190613142565b60405180910390f35b610530600480360381019061052b91906132ec565b610cbc565b005b61054c60048036038101906105479190613a1a565b610dd1565b005b61056860048036038101906105639190613ab1565b610e72565b005b610572610f0f565b60405161057f9190613b63565b60405180910390f35b60008073ffffffffffffffffffffffffffffffffffffffff168373ffffffffffffffffffffffffffffffffffffffff1614156105f9576040517f08c379a00000000000000000000000000000000000000000000000000000000081526004016105f090613bf0565b60405180910390fd5b60008083815260200190815260200160002060008473ffffffffffffffffffffffffffffffffffffffff1673ffffffffffffffffffffffffffffffffffffffff16815260200190815260200160002054905092915050565b600061065c82610f35565b9050919050565b7f7804d923f43a17d325d77e781528e0793b2edd9890ab45fc64efd7b4b427744c61068d81610faf565b61069682610fc3565b5050565b6060600280546106a990613c3f565b80601f01602080910402602001604051908101604052809291908181526020018280546106d590613c3f565b80156107225780601f106106f757610100808354040283529160200191610722565b820191906000526020600020905b81548152906001019060200180831161070557829003601f168201915b50505050509050919050565b600060036000838152602001908152602001600020600101549050919050565b610756610fdd565b73ffffffffffffffffffffffffffffffffffffffff168573ffffffffffffffffffffffffffffffffffffffff16148061079c575061079b85610796610fdd565b610c28565b5b6107db576040517f08c379a00000000000000000000000000000000000000000000000000000000081526004016107d290613ce3565b60405180910390fd5b6107e88585858585610fe5565b5050505050565b6107f88261072e565b61080181610faf565b61080b8383611307565b505050565b610818610fdd565b73ffffffffffffffffffffffffffffffffffffffff168173ffffffffffffffffffffffffffffffffffffffff1614610885576040517f08c379a000000000000000000000000000000000000000000000000000000000815260040161087c90613d75565b60405180910390fd5b61088f82826113e8565b5050565b7f65d7a28e3265b37a6474929f336521b332c1681b933f6cb9f3376673440d862a6108bd81610faf565b6108c56114ca565b50565b6060815183511461090e576040517f08c379a000000000000000000000000000000000000000000000000000000000815260040161090590613e07565b60405180910390fd5b6000835167ffffffffffffffff81111561092b5761092a613178565b5b6040519080825280602002602001820160405280156109595781602001602082028036833780820191505090505b50905060005b84518110156109d6576109a685828151811061097e5761097d613e27565b5b602002602001015185838151811061099957610998613e27565b5b6020026020010151610588565b8282815181106109b9576109b8613e27565b5b602002602001018181525050806109cf90613e85565b905061095f565b508091505092915050565b6000806109ed83610ba2565b119050919050565b6000600460009054906101000a900460ff16905090565b610a14610fdd565b73ffffffffffffffffffffffffffffffffffffffff168373ffffffffffffffffffffffffffffffffffffffff161480610a5a5750610a5983610a54610fdd565b610c28565b5b610a99576040517f08c379a0000000000000000000000000000000000000000000000000000000008152600401610a9090613ce3565b60405180910390fd5b610aa483838361152d565b505050565b7f7804d923f43a17d325d77e781528e0793b2edd9890ab45fc64efd7b4b427744c81565b7f65d7a28e3265b37a6474929f336521b332c1681b933f6cb9f3376673440d862a610af781610faf565b610aff6117fc565b50565b60006003600084815260200190815260200160002060000160008373ffffffffffffffffffffffffffffffffffffffff1673ffffffffffffffffffffffffffffffffffffffff16815260200190815260200160002060009054906101000a900460ff16905092915050565b6000801b81565b610b86610b7f610fdd565b838361185f565b5050565b60086020528060005260406000206000915090505481565b600060056000838152602001908152602001600020549050919050565b7f9f2df0fed2c77648de5860a4cc508cd0818c85b8b8a1ab4ceeef8d981c8956a681565b610bec8261072e565b610bf581610faf565b610bff83836113e8565b505050565b7f65d7a28e3265b37a6474929f336521b332c1681b933f6cb9f3376673440d862a81565b6000600160008473ffffffffffffffffffffffffffffffffffffffff1673ffffffffffffffffffffffffffffffffffffffff16815260200190815260200160002060008373ffffffffffffffffffffffffffffffffffffffff1673ffffffffffffffffffffffffffffffffffffffff16815260200190815260200160002060009054906101000a900460ff16905092915050565b610cc46119cc565b600060086000838152602001908152602001600020541415610d1b576040517f08c379a0000000000000000000000000000000000000000000000000000000008152600401610d1290613f1a565b60405180910390fd5b610d7d33306008600085815260200190815260200160002054600760009054906101000a900473ffffffffffffffffffffffffffffffffffffffff1673ffffffffffffffffffffffffffffffffffffffff16611a1c909392919063ffffffff16565b610d993382600160405180602001604052806000815250611aa5565b807fe2aeb2ae0272c38a449d3cebb58f6894790a45bfb16f73a8e1761acb1e31205360405160405180910390a2610dce611c56565b50565b610dd9610fdd565b73ffffffffffffffffffffffffffffffffffffffff168573ffffffffffffffffffffffffffffffffffffffff161480610e1f5750610e1e85610e19610fdd565b610c28565b5b610e5e576040517f08c379a0000000000000000000000000000000000000000000000000000000008152600401610e5590613ce3565b60405180910390fd5b610e6b8585858585611c60565b5050505050565b610e7a610fdd565b73ffffffffffffffffffffffffffffffffffffffff168373ffffffffffffffffffffffffffffffffffffffff161480610ec05750610ebf83610eba610fdd565b610c28565b5b610eff576040517f08c379a0000000000000000000000000000000000000000000000000000000008152600401610ef690613ce3565b60405180910390fd5b610f0a838383611efc565b505050565b600760009054906101000a900473ffffffffffffffffffffffffffffffffffffffff1681565b60007f7965db0b000000000000000000000000000000000000000000000000000000007bffffffffffffffffffffffffffffffffffffffffffffffffffffffff1916827bffffffffffffffffffffffffffffffffffffffffffffffffffffffff19161480610fa85750610fa782612143565b5b9050919050565b610fc081610fbb610fdd565b612225565b50565b8060029080519060200190610fd9929190612eed565b5050565b600033905090565b8151835114611029576040517f08c379a000000000000000000000000000000000000000000000000000000000815260040161102090613fac565b60405180910390fd5b600073ffffffffffffffffffffffffffffffffffffffff168473ffffffffffffffffffffffffffffffffffffffff161415611099576040517f08c379a00000000000000000000000000000000000000000000000000000000081526004016110909061403e565b60405180910390fd5b60006110a3610fdd565b90506110b38187878787876122aa565b60005b84518110156112645760008582815181106110d4576110d3613e27565b5b6020026020010151905060008583815181106110f3576110f2613e27565b5b60200260200101519050600080600084815260200190815260200160002060008b73ffffffffffffffffffffffffffffffffffffffff1673ffffffffffffffffffffffffffffffffffffffff16815260200190815260200160002054905081811015611194576040517f08c379a000000000000000000000000000000000000000000000000000000000815260040161118b906140d0565b60405180910390fd5b81810360008085815260200190815260200160002060008c73ffffffffffffffffffffffffffffffffffffffff1673ffffffffffffffffffffffffffffffffffffffff168152602001908152602001600020819055508160008085815260200190815260200160002060008b73ffffffffffffffffffffffffffffffffffffffff1673ffffffffffffffffffffffffffffffffffffffff168152602001908152602001600020600082825461124991906140f0565b925050819055505050508061125d90613e85565b90506110b6565b508473ffffffffffffffffffffffffffffffffffffffff168673ffffffffffffffffffffffffffffffffffffffff168273ffffffffffffffffffffffffffffffffffffffff167f4a39dc06d4c0dbc64b70af90fd698a233a518aa5d07e595d983b8c0526c8f7fb87876040516112db929190614146565b60405180910390a46112f18187878787876122c8565b6112ff8187878787876122d0565b505050505050565b6113118282610b02565b6113e45760016003600084815260200190815260200160002060000160008373ffffffffffffffffffffffffffffffffffffffff1673ffffffffffffffffffffffffffffffffffffffff16815260200190815260200160002060006101000a81548160ff021916908315150217905550611389610fdd565b73ffffffffffffffffffffffffffffffffffffffff168173ffffffffffffffffffffffffffffffffffffffff16837f2f8788117e7eff1d82e926ec794901d17c78024a50270940304540a733656f0d60405160405180910390a45b5050565b6113f28282610b02565b156114c65760006003600084815260200190815260200160002060000160008373ffffffffffffffffffffffffffffffffffffffff1673ffffffffffffffffffffffffffffffffffffffff16815260200190815260200160002060006101000a81548160ff02191690831515021790555061146b610fdd565b73ffffffffffffffffffffffffffffffffffffffff168173ffffffffffffffffffffffffffffffffffffffff16837ff6391f5c32d9c69d2a47ea670b442974b53935d1edc7fd64eb21e047a839171b60405160405180910390a45b5050565b6114d26124b7565b6000600460006101000a81548160ff0219169083151502179055507f5db9ee0a495bf2e6ff9c91a7834c1ba4fdd244a5e8aa4e537bd38aeae4b073aa611516610fdd565b604051611523919061418c565b60405180910390a1565b600073ffffffffffffffffffffffffffffffffffffffff168373ffffffffffffffffffffffffffffffffffffffff16141561159d576040517f08c379a000000000000000000000000000000000000000000000000000000000815260040161159490614219565b60405180910390fd5b80518251146115e1576040517f08c379a00000000000000000000000000000000000000000000000000000000081526004016115d890613fac565b60405180910390fd5b60006115eb610fdd565b905061160b818560008686604051806020016040528060008152506122aa565b60005b835181101561175857600084828151811061162c5761162b613e27565b5b60200260200101519050600084838151811061164b5761164a613e27565b5b60200260200101519050600080600084815260200190815260200160002060008973ffffffffffffffffffffffffffffffffffffffff1673ffffffffffffffffffffffffffffffffffffffff168152602001908152602001600020549050818110156116ec576040517f08c379a00000000000000000000000000000000000000000000000000000000081526004016116e3906142ab565b60405180910390fd5b81810360008085815260200190815260200160002060008a73ffffffffffffffffffffffffffffffffffffffff1673ffffffffffffffffffffffffffffffffffffffff16815260200190815260200160002081905550505050808061175090613e85565b91505061160e565b50600073ffffffffffffffffffffffffffffffffffffffff168473ffffffffffffffffffffffffffffffffffffffff168273ffffffffffffffffffffffffffffffffffffffff167f4a39dc06d4c0dbc64b70af90fd698a233a518aa5d07e595d983b8c0526c8f7fb86866040516117d0929190614146565b60405180910390a46117f6818560008686604051806020016040528060008152506122c8565b50505050565b611804612500565b6001600460006101000a81548160ff0219169083151502179055507f62e78cea01bee320cd4e420270b5ea74000d11b0c9f74754ebdbfc544b05a258611848610fdd565b604051611855919061418c565b60405180910390a1565b8173ffffffffffffffffffffffffffffffffffffffff168373ffffffffffffffffffffffffffffffffffffffff1614156118ce576040517f08c379a00000000000000000000000000000000000000000000000000000000081526004016118c59061433d565b60405180910390fd5b80600160008573ffffffffffffffffffffffffffffffffffffffff1673ffffffffffffffffffffffffffffffffffffffff16815260200190815260200160002060008473ffffffffffffffffffffffffffffffffffffffff1673ffffffffffffffffffffffffffffffffffffffff16815260200190815260200160002060006101000a81548160ff0219169083151502179055508173ffffffffffffffffffffffffffffffffffffffff168373ffffffffffffffffffffffffffffffffffffffff167f17307eab39ab6107e8899845ad3d59bd9653f200f220920489ca2b5937696c31836040516119bf9190613142565b60405180910390a3505050565b60026006541415611a12576040517f08c379a0000000000000000000000000000000000000000000000000000000008152600401611a09906143a9565b60405180910390fd5b6002600681905550565b611a9f846323b872dd60e01b858585604051602401611a3d939291906143c9565b604051602081830303815290604052907bffffffffffffffffffffffffffffffffffffffffffffffffffffffff19166020820180517bffffffffffffffffffffffffffffffffffffffffffffffffffffffff838183161783525050505061254a565b50505050565b600073ffffffffffffffffffffffffffffffffffffffff168473ffffffffffffffffffffffffffffffffffffffff161415611b15576040517f08c379a0000000000000000000000000000000000000000000000000000000008152600401611b0c90614472565b60405180910390fd5b6000611b1f610fdd565b90506000611b2c85612611565b90506000611b3985612611565b9050611b4a836000898585896122aa565b8460008088815260200190815260200160002060008973ffffffffffffffffffffffffffffffffffffffff1673ffffffffffffffffffffffffffffffffffffffff1681526020019081526020016000206000828254611ba991906140f0565b925050819055508673ffffffffffffffffffffffffffffffffffffffff16600073ffffffffffffffffffffffffffffffffffffffff168473ffffffffffffffffffffffffffffffffffffffff167fc3d58168c5ae7397731d063d5bbf3d657854427343f4c083240f7aacaa2d0f628989604051611c27929190614492565b60405180910390a4611c3e836000898585896122c8565b611c4d8360008989898961268b565b50505050505050565b6001600681905550565b600073ffffffffffffffffffffffffffffffffffffffff168473ffffffffffffffffffffffffffffffffffffffff161415611cd0576040517f08c379a0000000000000000000000000000000000000000000000000000000008152600401611cc79061403e565b60405180910390fd5b6000611cda610fdd565b90506000611ce785612611565b90506000611cf485612611565b9050611d048389898585896122aa565b600080600088815260200190815260200160002060008a73ffffffffffffffffffffffffffffffffffffffff1673ffffffffffffffffffffffffffffffffffffffff16815260200190815260200160002054905085811015611d9b576040517f08c379a0000000000000000000000000000000000000000000000000000000008152600401611d92906140d0565b60405180910390fd5b85810360008089815260200190815260200160002060008b73ffffffffffffffffffffffffffffffffffffffff1673ffffffffffffffffffffffffffffffffffffffff168152602001908152602001600020819055508560008089815260200190815260200160002060008a73ffffffffffffffffffffffffffffffffffffffff1673ffffffffffffffffffffffffffffffffffffffff1681526020019081526020016000206000828254611e5091906140f0565b925050819055508773ffffffffffffffffffffffffffffffffffffffff168973ffffffffffffffffffffffffffffffffffffffff168573ffffffffffffffffffffffffffffffffffffffff167fc3d58168c5ae7397731d063d5bbf3d657854427343f4c083240f7aacaa2d0f628a8a604051611ecd929190614492565b60405180910390a4611ee3848a8a86868a6122c8565b611ef1848a8a8a8a8a61268b565b505050505050505050565b600073ffffffffffffffffffffffffffffffffffffffff168373ffffffffffffffffffffffffffffffffffffffff161415611f6c576040517f08c379a0000000000000000000000000000000000000000000000000000000008152600401611f6390614219565b60405180910390fd5b6000611f76610fdd565b90506000611f8384612611565b90506000611f9084612611565b9050611fb0838760008585604051806020016040528060008152506122aa565b600080600087815260200190815260200160002060008873ffffffffffffffffffffffffffffffffffffffff1673ffffffffffffffffffffffffffffffffffffffff16815260200190815260200160002054905084811015612047576040517f08c379a000000000000000000000000000000000000000000000000000000000815260040161203e906142ab565b60405180910390fd5b84810360008088815260200190815260200160002060008973ffffffffffffffffffffffffffffffffffffffff1673ffffffffffffffffffffffffffffffffffffffff16815260200190815260200160002081905550600073ffffffffffffffffffffffffffffffffffffffff168773ffffffffffffffffffffffffffffffffffffffff168573ffffffffffffffffffffffffffffffffffffffff167fc3d58168c5ae7397731d063d5bbf3d657854427343f4c083240f7aacaa2d0f628989604051612114929190614492565b60405180910390a461213a848860008686604051806020016040528060008152506122c8565b50505050505050565b60007fd9b67a26000000000000000000000000000000000000000000000000000000007bffffffffffffffffffffffffffffffffffffffffffffffffffffffff1916827bffffffffffffffffffffffffffffffffffffffffffffffffffffffff1916148061220e57507f0e89341c000000000000000000000000000000000000000000000000000000007bffffffffffffffffffffffffffffffffffffffffffffffffffffffff1916827bffffffffffffffffffffffffffffffffffffffffffffffffffffffff1916145b8061221e575061221d82612872565b5b9050919050565b61222f8282610b02565b6122a65761223c816128dc565b61224a8360001c6020612909565b60405160200161225b92919061458f565b6040516020818303038152906040526040517f08c379a000000000000000000000000000000000000000000000000000000000815260040161229d91906133a1565b60405180910390fd5b5050565b6122b2612500565b6122c0868686868686612b45565b505050505050565b505050505050565b6122ef8473ffffffffffffffffffffffffffffffffffffffff16612d17565b156124af578373ffffffffffffffffffffffffffffffffffffffff1663bc197c8187878686866040518663ffffffff1660e01b815260040161233595949392919061461e565b602060405180830381600087803b15801561234f57600080fd5b505af192505050801561238057506040513d601f19601f8201168201806040525081019061237d919061469b565b60015b6124265761238c6146d5565b806308c379a014156123e957506123a16146f7565b806123ac57506123eb565b806040517f08c379a00000000000000000000000000000000000000000000000000000000081526004016123e091906133a1565b60405180910390fd5b505b6040517f08c379a000000000000000000000000000000000000000000000000000000000815260040161241d906147ff565b60405180910390fd5b63bc197c8160e01b7bffffffffffffffffffffffffffffffffffffffffffffffffffffffff1916817bffffffffffffffffffffffffffffffffffffffffffffffffffffffff1916146124ad576040517f08c379a00000000000000000000000000000000000000000000000000000000081526004016124a490614891565b60405180910390fd5b505b505050505050565b6124bf6109f5565b6124fe576040517f08c379a00000000000000000000000000000000000000000000000000000000081526004016124f5906148fd565b60405180910390fd5b565b6125086109f5565b15612548576040517f08c379a000000000000000000000000000000000000000000000000000000000815260040161253f90614969565b60405180910390fd5b565b60006125ac826040518060400160405280602081526020017f5361666545524332303a206c6f772d6c6576656c2063616c6c206661696c65648152508573ffffffffffffffffffffffffffffffffffffffff16612d3a9092919063ffffffff16565b905060008151111561260c57808060200190518101906125cc919061499e565b61260b576040517f08c379a000000000000000000000000000000000000000000000000000000000815260040161260290614a3d565b60405180910390fd5b5b505050565b60606000600167ffffffffffffffff8111156126305761262f613178565b5b60405190808252806020026020018201604052801561265e5781602001602082028036833780820191505090505b509050828160008151811061267657612675613e27565b5b60200260200101818152505080915050919050565b6126aa8473ffffffffffffffffffffffffffffffffffffffff16612d17565b1561286a578373ffffffffffffffffffffffffffffffffffffffff1663f23a6e6187878686866040518663ffffffff1660e01b81526004016126f0959493929190614a5d565b602060405180830381600087803b15801561270a57600080fd5b505af192505050801561273b57506040513d601f19601f82011682018060405250810190612738919061469b565b60015b6127e1576127476146d5565b806308c379a014156127a4575061275c6146f7565b8061276757506127a6565b806040517f08c379a000000000000000000000000000000000000000000000000000000000815260040161279b91906133a1565b60405180910390fd5b505b6040517f08c379a00000000000000000000000000000000000000000000000000000000081526004016127d8906147ff565b60405180910390fd5b63f23a6e6160e01b7bffffffffffffffffffffffffffffffffffffffffffffffffffffffff1916817bffffffffffffffffffffffffffffffffffffffffffffffffffffffff191614612868576040517f08c379a000000000000000000000000000000000000000000000000000000000815260040161285f90614891565b60405180910390fd5b505b505050505050565b60007f01ffc9a7000000000000000000000000000000000000000000000000000000007bffffffffffffffffffffffffffffffffffffffffffffffffffffffff1916827bffffffffffffffffffffffffffffffffffffffffffffffffffffffff1916149050919050565b60606129028273ffffffffffffffffffffffffffffffffffffffff16601460ff16612909565b9050919050565b60606000600283600261291c9190614ab7565b61292691906140f0565b67ffffffffffffffff81111561293f5761293e613178565b5b6040519080825280601f01601f1916602001820160405280156129715781602001600182028036833780820191505090505b5090507f3000000000000000000000000000000000000000000000000000000000000000816000815181106129a9576129a8613e27565b5b60200101907effffffffffffffffffffffffffffffffffffffffffffffffffffffffffffff1916908160001a9053507f780000000000000000000000000000000000000000000000000000000000000081600181518110612a0d57612a0c613e27565b5b60200101907effffffffffffffffffffffffffffffffffffffffffffffffffffffffffffff1916908160001a90535060006001846002612a4d9190614ab7565b612a5791906140f0565b90505b6001811115612af7577f3031323334353637383961626364656600000000000000000000000000000000600f861660108110612a9957612a98613e27565b5b1a60f81b828281518110612ab057612aaf613e27565b5b60200101907effffffffffffffffffffffffffffffffffffffffffffffffffffffffffffff1916908160001a905350600485901c945080612af090614b11565b9050612a5a565b5060008414612b3b576040517f08c379a0000000000000000000000000000000000000000000000000000000008152600401612b3290614b87565b60405180910390fd5b8091505092915050565b612b53868686868686612d52565b600073ffffffffffffffffffffffffffffffffffffffff168573ffffffffffffffffffffffffffffffffffffffff161415612c055760005b8351811015612c0357828181518110612ba757612ba6613e27565b5b602002602001015160056000868481518110612bc657612bc5613e27565b5b602002602001015181526020019081526020016000206000828254612beb91906140f0565b9250508190555080612bfc90613e85565b9050612b8b565b505b600073ffffffffffffffffffffffffffffffffffffffff168473ffffffffffffffffffffffffffffffffffffffff161415612d0f5760005b8351811015612d0d576000848281518110612c5b57612c5a613e27565b5b602002602001015190506000848381518110612c7a57612c79613e27565b5b6020026020010151905060006005600084815260200190815260200160002054905081811015612cdf576040517f08c379a0000000000000000000000000000000000000000000000000000000008152600401612cd690614c19565b60405180910390fd5b818103600560008581526020019081526020016000208190555050505080612d0690613e85565b9050612c3d565b505b505050505050565b6000808273ffffffffffffffffffffffffffffffffffffffff163b119050919050565b6060612d498484600085612d5a565b90509392505050565b505050505050565b606082471015612d9f576040517f08c379a0000000000000000000000000000000000000000000000000000000008152600401612d9690614cab565b60405180910390fd5b6000808673ffffffffffffffffffffffffffffffffffffffff168587604051612dc89190614d07565b60006040518083038185875af1925050503d8060008114612e05576040519150601f19603f3d011682016040523d82523d6000602084013e612e0a565b606091505b5091509150612e1b87838387612e27565b92505050949350505050565b60608315612e8a57600083511415612e8257612e4285612d17565b612e81576040517f08c379a0000000000000000000000000000000000000000000000000000000008152600401612e7890614d6a565b60405180910390fd5b5b829050612e95565b612e948383612e9d565b5b949350505050565b600082511115612eb05781518083602001fd5b806040517f08c379a0000000000000000000000000000000000000000000000000000000008152600401612ee491906133a1565b60405180910390fd5b828054612ef990613c3f565b90600052602060002090601f016020900481019282612f1b5760008555612f62565b82601f10612f3457805160ff1916838001178555612f62565b82800160010185558215612f62579182015b82811115612f61578251825591602001919060010190612f46565b5b509050612f6f9190612f73565b5090565b5b80821115612f8c576000816000905550600101612f74565b5090565b6000604051905090565b600080fd5b600080fd5b600073ffffffffffffffffffffffffffffffffffffffff82169050919050565b6000612fcf82612fa4565b9050919050565b612fdf81612fc4565b8114612fea57600080fd5b50565b600081359050612ffc81612fd6565b92915050565b6000819050919050565b61301581613002565b811461302057600080fd5b50565b6000813590506130328161300c565b92915050565b6000806040838503121561304f5761304e612f9a565b5b600061305d85828601612fed565b925050602061306e85828601613023565b9150509250929050565b61308181613002565b82525050565b600060208201905061309c6000830184613078565b92915050565b60007fffffffff0000000000000000000000000000000000000000000000000000000082169050919050565b6130d7816130a2565b81146130e257600080fd5b50565b6000813590506130f4816130ce565b92915050565b6000602082840312156131105761310f612f9a565b5b600061311e848285016130e5565b91505092915050565b60008115159050919050565b61313c81613127565b82525050565b60006020820190506131576000830184613133565b92915050565b600080fd5b600080fd5b6000601f19601f8301169050919050565b7f4e487b7100000000000000000000000000000000000000000000000000000000600052604160045260246000fd5b6131b082613167565b810181811067ffffffffffffffff821117156131cf576131ce613178565b5b80604052505050565b60006131e2612f90565b90506131ee82826131a7565b919050565b600067ffffffffffffffff82111561320e5761320d613178565b5b61321782613167565b9050602081019050919050565b82818337600083830152505050565b6000613246613241846131f3565b6131d8565b90508281526020810184848401111561326257613261613162565b5b61326d848285613224565b509392505050565b600082601f83011261328a5761328961315d565b5b813561329a848260208601613233565b91505092915050565b6000602082840312156132b9576132b8612f9a565b5b600082013567ffffffffffffffff8111156132d7576132d6612f9f565b5b6132e384828501613275565b91505092915050565b60006020828403121561330257613301612f9a565b5b600061331084828501613023565b91505092915050565b600081519050919050565b600082825260208201905092915050565b60005b83811015613353578082015181840152602081019050613338565b83811115613362576000848401525b50505050565b600061337382613319565b61337d8185613324565b935061338d818560208601613335565b61339681613167565b840191505092915050565b600060208201905081810360008301526133bb8184613368565b905092915050565b6000819050919050565b6133d6816133c3565b81146133e157600080fd5b50565b6000813590506133f3816133cd565b92915050565b60006020828403121561340f5761340e612f9a565b5b600061341d848285016133e4565b91505092915050565b61342f816133c3565b82525050565b600060208201905061344a6000830184613426565b92915050565b600067ffffffffffffffff82111561346b5761346a613178565b5b602082029050602081019050919050565b600080fd5b600061349461348f84613450565b6131d8565b905080838252602082019050602084028301858111156134b7576134b661347c565b5b835b818110156134e057806134cc8882613023565b8452602084019350506020810190506134b9565b5050509392505050565b600082601f8301126134ff576134fe61315d565b5b813561350f848260208601613481565b91505092915050565b600067ffffffffffffffff82111561353357613532613178565b5b61353c82613167565b9050602081019050919050565b600061355c61355784613518565b6131d8565b90508281526020810184848401111561357857613577613162565b5b613583848285613224565b509392505050565b600082601f8301126135a05761359f61315d565b5b81356135b0848260208601613549565b91505092915050565b600080600080600060a086880312156135d5576135d4612f9a565b5b60006135e388828901612fed565b95505060206135f488828901612fed565b945050604086013567ffffffffffffffff81111561361557613614612f9f565b5b613621888289016134ea565b935050606086013567ffffffffffffffff81111561364257613641612f9f565b5b61364e888289016134ea565b925050608086013567ffffffffffffffff81111561366f5761366e612f9f565b5b61367b8882890161358b565b9150509295509295909350565b6000806040838503121561369f5761369e612f9a565b5b60006136ad858286016133e4565b92505060206136be85828601612fed565b9150509250929050565b600067ffffffffffffffff8211156136e3576136e2613178565b5b602082029050602081019050919050565b6000613707613702846136c8565b6131d8565b9050808382526020820190506020840283018581111561372a5761372961347c565b5b835b81811015613753578061373f8882612fed565b84526020840193505060208101905061372c565b5050509392505050565b600082601f8301126137725761377161315d565b5b81356137828482602086016136f4565b91505092915050565b600080604083850312156137a2576137a1612f9a565b5b600083013567ffffffffffffffff8111156137c0576137bf612f9f565b5b6137cc8582860161375d565b925050602083013567ffffffffffffffff8111156137ed576137ec612f9f565b5b6137f9858286016134ea565b9150509250929050565b600081519050919050565b600082825260208201905092915050565b6000819050602082019050919050565b61383881613002565b82525050565b600061384a838361382f565b60208301905092915050565b6000602082019050919050565b600061386e82613803565b613878818561380e565b93506138838361381f565b8060005b838110156138b457815161389b888261383e565b97506138a683613856565b925050600181019050613887565b5085935050505092915050565b600060208201905081810360008301526138db8184613863565b905092915050565b6000806000606084860312156138fc576138fb612f9a565b5b600061390a86828701612fed565b935050602084013567ffffffffffffffff81111561392b5761392a612f9f565b5b613937868287016134ea565b925050604084013567ffffffffffffffff81111561395857613957612f9f565b5b613964868287016134ea565b9150509250925092565b61397781613127565b811461398257600080fd5b50565b6000813590506139948161396e565b92915050565b600080604083850312156139b1576139b0612f9a565b5b60006139bf85828601612fed565b92505060206139d085828601613985565b9150509250929050565b600080604083850312156139f1576139f0612f9a565b5b60006139ff85828601612fed565b9250506020613a1085828601612fed565b9150509250929050565b600080600080600060a08688031215613a3657613a35612f9a565b5b6000613a4488828901612fed565b9550506020613a5588828901612fed565b9450506040613a6688828901613023565b9350506060613a7788828901613023565b925050608086013567ffffffffffffffff811115613a9857613a97612f9f565b5b613aa48882890161358b565b9150509295509295909350565b600080600060608486031215613aca57613ac9612f9a565b5b6000613ad886828701612fed565b9350506020613ae986828701613023565b9250506040613afa86828701613023565b9150509250925092565b6000819050919050565b6000613b29613b24613b1f84612fa4565b613b04565b612fa4565b9050919050565b6000613b3b82613b0e565b9050919050565b6000613b4d82613b30565b9050919050565b613b5d81613b42565b82525050565b6000602082019050613b786000830184613b54565b92915050565b7f455243313135353a2061646472657373207a65726f206973206e6f742061207660008201527f616c6964206f776e657200000000000000000000000000000000000000000000602082015250565b6000613bda602a83613324565b9150613be582613b7e565b604082019050919050565b60006020820190508181036000830152613c0981613bcd565b9050919050565b7f4e487b7100000000000000000000000000000000000000000000000000000000600052602260045260246000fd5b60006002820490506001821680613c5757607f821691505b60208210811415613c6b57613c6a613c10565b5b50919050565b7f455243313135353a2063616c6c6572206973206e6f7420746f6b656e206f776e60008201527f6572206f7220617070726f766564000000000000000000000000000000000000602082015250565b6000613ccd602e83613324565b9150613cd882613c71565b604082019050919050565b60006020820190508181036000830152613cfc81613cc0565b9050919050565b7f416363657373436f6e74726f6c3a2063616e206f6e6c792072656e6f756e636560008201527f20726f6c657320666f722073656c660000000000000000000000000000000000602082015250565b6000613d5f602f83613324565b9150613d6a82613d03565b604082019050919050565b60006020820190508181036000830152613d8e81613d52565b9050919050565b7f455243313135353a206163636f756e747320616e6420696473206c656e67746860008201527f206d69736d617463680000000000000000000000000000000000000000000000602082015250565b6000613df1602983613324565b9150613dfc82613d95565b604082019050919050565b60006020820190508181036000830152613e2081613de4565b9050919050565b7f4e487b7100000000000000000000000000000000000000000000000000000000600052603260045260246000fd5b7f4e487b7100000000000000000000000000000000000000000000000000000000600052601160045260246000fd5b6000613e9082613002565b91507fffffffffffffffffffffffffffffffffffffffffffffffffffffffffffffffff821415613ec357613ec2613e56565b5b600182019050919050565b7f546f6b656e2063616e6e6f742062652070757263686173656400000000000000600082015250565b6000613f04601983613324565b9150613f0f82613ece565b602082019050919050565b60006020820190508181036000830152613f3381613ef7565b9050919050565b7f455243313135353a2069647320616e6420616d6f756e7473206c656e6774682060008201527f6d69736d61746368000000000000000000000000000000000000000000000000602082015250565b6000613f96602883613324565b9150613fa182613f3a565b604082019050919050565b60006020820190508181036000830152613fc581613f89565b9050919050565b7f455243313135353a207472616e7366657220746f20746865207a65726f20616460008201527f6472657373000000000000000000000000000000000000000000000000000000602082015250565b6000614028602583613324565b915061403382613fcc565b604082019050919050565b600060208201905081810360008301526140578161401b565b9050919050565b7f455243313135353a20696e73756666696369656e742062616c616e636520666f60008201527f72207472616e7366657200000000000000000000000000000000000000000000602082015250565b60006140ba602a83613324565b91506140c58261405e565b604082019050919050565b600060208201905081810360008301526140e9816140ad565b9050919050565b60006140fb82613002565b915061410683613002565b9250827fffffffffffffffffffffffffffffffffffffffffffffffffffffffffffffffff0382111561413b5761413a613e56565b5b828201905092915050565b600060408201905081810360008301526141608185613863565b905081810360208301526141748184613863565b90509392505050565b61418681612fc4565b82525050565b60006020820190506141a1600083018461417d565b92915050565b7f455243313135353a206275726e2066726f6d20746865207a65726f206164647260008201527f6573730000000000000000000000000000000000000000000000000000000000602082015250565b6000614203602383613324565b915061420e826141a7565b604082019050919050565b60006020820190508181036000830152614232816141f6565b9050919050565b7f455243313135353a206275726e20616d6f756e7420657863656564732062616c60008201527f616e636500000000000000000000000000000000000000000000000000000000602082015250565b6000614295602483613324565b91506142a082614239565b604082019050919050565b600060208201905081810360008301526142c481614288565b9050919050565b7f455243313135353a2073657474696e6720617070726f76616c2073746174757360008201527f20666f722073656c660000000000000000000000000000000000000000000000602082015250565b6000614327602983613324565b9150614332826142cb565b604082019050919050565b600060208201905081810360008301526143568161431a565b9050919050565b7f5265656e7472616e637947756172643a207265656e7472616e742063616c6c00600082015250565b6000614393601f83613324565b915061439e8261435d565b602082019050919050565b600060208201905081810360008301526143c281614386565b9050919050565b60006060820190506143de600083018661417d565b6143eb602083018561417d565b6143f86040830184613078565b949350505050565b7f455243313135353a206d696e7420746f20746865207a65726f2061646472657360008201527f7300000000000000000000000000000000000000000000000000000000000000602082015250565b600061445c602183613324565b915061446782614400565b604082019050919050565b6000602082019050818103600083015261448b8161444f565b9050919050565b60006040820190506144a76000830185613078565b6144b46020830184613078565b9392505050565b600081905092915050565b7f416363657373436f6e74726f6c3a206163636f756e7420000000000000000000600082015250565b60006144fc6017836144bb565b9150614507826144c6565b601782019050919050565b600061451d82613319565b61452781856144bb565b9350614537818560208601613335565b80840191505092915050565b7f206973206d697373696e6720726f6c6520000000000000000000000000000000600082015250565b60006145796011836144bb565b915061458482614543565b601182019050919050565b600061459a826144ef565b91506145a68285614512565b91506145b18261456c565b91506145bd8284614512565b91508190509392505050565b600081519050919050565b600082825260208201905092915050565b60006145f0826145c9565b6145fa81856145d4565b935061460a818560208601613335565b61461381613167565b840191505092915050565b600060a082019050614633600083018861417d565b614640602083018761417d565b81810360408301526146528186613863565b905081810360608301526146668185613863565b9050818103608083015261467a81846145e5565b90509695505050505050565b600081519050614695816130ce565b92915050565b6000602082840312156146b1576146b0612f9a565b5b60006146bf84828501614686565b91505092915050565b60008160e01c9050919050565b600060033d11156146f45760046000803e6146f16000516146c8565b90505b90565b600060443d10156147075761478a565b61470f612f90565b60043d036004823e80513d602482011167ffffffffffffffff8211171561473757505061478a565b808201805167ffffffffffffffff811115614755575050505061478a565b80602083010160043d03850181111561477257505050505061478a565b614781826020018501866131a7565b82955050505050505b90565b7f455243313135353a207472616e7366657220746f206e6f6e2d4552433131353560008201527f526563656976657220696d706c656d656e746572000000000000000000000000602082015250565b60006147e9603483613324565b91506147f48261478d565b604082019050919050565b60006020820190508181036000830152614818816147dc565b9050919050565b7f455243313135353a204552433131353552656365697665722072656a6563746560008201527f6420746f6b656e73000000000000000000000000000000000000000000000000602082015250565b600061487b602883613324565b91506148868261481f565b604082019050919050565b600060208201905081810360008301526148aa8161486e565b9050919050565b7f5061757361626c653a206e6f7420706175736564000000000000000000000000600082015250565b60006148e7601483613324565b91506148f2826148b1565b602082019050919050565b60006020820190508181036000830152614916816148da565b9050919050565b7f5061757361626c653a2070617573656400000000000000000000000000000000600082015250565b6000614953601083613324565b915061495e8261491d565b602082019050919050565b6000602082019050818103600083015261498281614946565b9050919050565b6000815190506149988161396e565b92915050565b6000602082840312156149b4576149b3612f9a565b5b60006149c284828501614989565b91505092915050565b7f5361666545524332303a204552433230206f7065726174696f6e20646964206e60008201527f6f74207375636365656400000000000000000000000000000000000000000000602082015250565b6000614a27602a83613324565b9150614a32826149cb565b604082019050919050565b60006020820190508181036000830152614a5681614a1a565b9050919050565b600060a082019050614a72600083018861417d565b614a7f602083018761417d565b614a8c6040830186613078565b614a996060830185613078565b8181036080830152614aab81846145e5565b90509695505050505050565b6000614ac282613002565b9150614acd83613002565b9250817fffffffffffffffffffffffffffffffffffffffffffffffffffffffffffffffff0483118215151615614b0657614b05613e56565b5b828202905092915050565b6000614b1c82613002565b91506000821415614b3057614b2f613e56565b5b600182039050919050565b7f537472696e67733a20686578206c656e67746820696e73756666696369656e74600082015250565b6000614b71602083613324565b9150614b7c82614b3b565b602082019050919050565b60006020820190508181036000830152614ba081614b64565b9050919050565b7f455243313135353a206275726e20616d6f756e74206578636565647320746f7460008201527f616c537570706c79000000000000000000000000000000000000000000000000602082015250565b6000614c03602883613324565b9150614c0e82614ba7565b604082019050919050565b60006020820190508181036000830152614c3281614bf6565b9050919050565b7f416464726573733a20696e73756666696369656e742062616c616e636520666f60008201527f722063616c6c0000000000000000000000000000000000000000000000000000602082015250565b6000614c95602683613324565b9150614ca082614c39565b604082019050919050565b60006020820190508181036000830152614cc481614c88565b9050919050565b600081905092915050565b6000614ce1826145c9565b614ceb8185614ccb565b9350614cfb818560208601613335565b80840191505092915050565b6000614d138284614cd6565b915081905092915050565b7f416464726573733a2063616c6c20746f206e6f6e2d636f6e7472616374000000600082015250565b6000614d54601d83613324565b9150614d5f82614d1e565b602082019050919050565b60006020820190508181036000830152614d8381614d47565b905091905056fea2646970667358221220ababa802be278dd514e3f3b5b9d432ac7642dc5fc3c8b10eb4890f8fbbf48f8c64736f6c63430008090033",
  "devdoc": {
    "custom:security-contact": "code@dirtroad.dev",
    "kind": "dev",
    "methods": {
      "balanceOf(address,uint256)": {
        "details": "See {IERC1155-balanceOf}. Requirements: - `account` cannot be the zero address."
      },
      "balanceOfBatch(address[],uint256[])": {
        "details": "See {IERC1155-balanceOfBatch}. Requirements: - `accounts` and `ids` must have the same length."
      },
      "exists(uint256)": {
        "details": "Indicates whether any token exist with a given id, or not."
      },
      "getRoleAdmin(bytes32)": {
        "details": "Returns the admin role that controls `role`. See {grantRole} and {revokeRole}. To change a role's admin, use {_setRoleAdmin}."
      },
      "grantRole(bytes32,address)": {
        "details": "Grants `role` to `account`. If `account` had not been already granted `role`, emits a {RoleGranted} event. Requirements: - the caller must have ``role``'s admin role. May emit a {RoleGranted} event."
      },
      "hasRole(bytes32,address)": {
        "details": "Returns `true` if `account` has been granted `role`."
      },
      "isApprovedForAll(address,address)": {
        "details": "See {IERC1155-isApprovedForAll}."
      },
      "paused()": {
        "details": "Returns true if the contract is paused, and false otherwise."
      },
      "renounceRole(bytes32,address)": {
        "details": "Revokes `role` from the calling account. Roles are often managed via {grantRole} and {revokeRole}: this function's purpose is to provide a mechanism for accounts to lose their privileges if they are compromised (such as when a trusted device is misplaced). If the calling account had been revoked `role`, emits a {RoleRevoked} event. Requirements: - the caller must be `account`. May emit a {RoleRevoked} event."
      },
      "revokeRole(bytes32,address)": {
        "details": "Revokes `role` from `account`. If `account` had been granted `role`, emits a {RoleRevoked} event. Requirements: - the caller must have ``role``'s admin role. May emit a {RoleRevoked} event."
      },
      "safeBatchTransferFrom(address,address,uint256[],uint256[],bytes)": {
        "details": "See {IERC1155-safeBatchTransferFrom}."
      },
      "safeTransferFrom(address,address,uint256,uint256,bytes)": {
        "details": "See {IERC1155-safeTransferFrom}."
      },
      "setApprovalForAll(address,bool)": {
        "details": "See {IERC1155-setApprovalForAll}."
      },
      "totalSupply(uint256)": {
        "details": "Total amount of tokens in with a given id."
      },
      "uri(uint256)": {
        "details": "See {IERC1155MetadataURI-uri}. This implementation returns the same URI for *all* token types. It relies on the token type ID substitution mechanism https://eips.ethereum.org/EIPS/eip-1155#metadata[defined in the EIP]. Clients calling this function must replace the `\\{id\\}` substring with the actual token type ID."
      }
    },
    "version": 1
  },
  "userdoc": {
    "kind": "user",
    "methods": {},
    "version": 1
  },
  "storageLayout": {
    "storage": [
      {
        "astId": 576,
        "contract": "contracts/Avatar.sol:Avatar",
        "label": "_balances",
        "offset": 0,
        "slot": "0",
        "type": "t_mapping(t_uint256,t_mapping(t_address,t_uint256))"
      },
      {
        "astId": 582,
        "contract": "contracts/Avatar.sol:Avatar",
        "label": "_operatorApprovals",
        "offset": 0,
        "slot": "1",
        "type": "t_mapping(t_address,t_mapping(t_address,t_bool))"
      },
      {
        "astId": 584,
        "contract": "contracts/Avatar.sol:Avatar",
        "label": "_uri",
        "offset": 0,
        "slot": "2",
        "type": "t_string_storage"
      },
      {
        "astId": 24,
        "contract": "contracts/Avatar.sol:Avatar",
        "label": "_roles",
        "offset": 0,
        "slot": "3",
        "type": "t_mapping(t_bytes32,t_struct(RoleData)19_storage)"
      },
      {
        "astId": 406,
        "contract": "contracts/Avatar.sol:Avatar",
        "label": "_paused",
        "offset": 0,
        "slot": "4",
        "type": "t_bool"
      },
      {
        "astId": 2015,
        "contract": "contracts/Avatar.sol:Avatar",
        "label": "_totalSupply",
        "offset": 0,
        "slot": "5",
        "type": "t_mapping(t_uint256,t_uint256)"
      },
      {
        "astId": 507,
        "contract": "contracts/Avatar.sol:Avatar",
        "label": "_status",
        "offset": 0,
        "slot": "6",
        "type": "t_uint256"
      },
      {
        "astId": 4775,
        "contract": "contracts/Avatar.sol:Avatar",
        "label": "gold",
        "offset": 0,
        "slot": "7",
        "type": "t_contract(IERC20)2842"
      },
      {
        "astId": 4779,
        "contract": "contracts/Avatar.sol:Avatar",
        "label": "prices",
        "offset": 0,
        "slot": "8",
        "type": "t_mapping(t_uint256,t_uint256)"
      }
    ],
    "types": {
      "t_address": {
        "encoding": "inplace",
        "label": "address",
        "numberOfBytes": "20"
      },
      "t_bool": {
        "encoding": "inplace",
        "label": "bool",
        "numberOfBytes": "1"
      },
      "t_bytes32": {
        "encoding": "inplace",
        "label": "bytes32",
        "numberOfBytes": "32"
      },
      "t_contract(IERC20)2842": {
        "encoding": "inplace",
        "label": "contract IERC20",
        "numberOfBytes": "20"
      },
      "t_mapping(t_address,t_bool)": {
        "encoding": "mapping",
        "key": "t_address",
        "label": "mapping(address => bool)",
        "numberOfBytes": "32",
        "value": "t_bool"
      },
      "t_mapping(t_address,t_mapping(t_address,t_bool))": {
        "encoding": "mapping",
        "key": "t_address",
        "label": "mapping(address => mapping(address => bool))",
        "numberOfBytes": "32",
        "value": "t_mapping(t_address,t_bool)"
      },
      "t_mapping(t_address,t_uint256)": {
        "encoding": "mapping",
        "key": "t_address",
        "label": "mapping(address => uint256)",
        "numberOfBytes": "32",
        "value": "t_uint256"
      },
      "t_mapping(t_bytes32,t_struct(RoleData)19_storage)": {
        "encoding": "mapping",
        "key": "t_bytes32",
        "label": "mapping(bytes32 => struct AccessControl.RoleData)",
        "numberOfBytes": "32",
        "value": "t_struct(RoleData)19_storage"
      },
      "t_mapping(t_uint256,t_mapping(t_address,t_uint256))": {
        "encoding": "mapping",
        "key": "t_uint256",
        "label": "mapping(uint256 => mapping(address => uint256))",
        "numberOfBytes": "32",
        "value": "t_mapping(t_address,t_uint256)"
      },
      "t_mapping(t_uint256,t_uint256)": {
        "encoding": "mapping",
        "key": "t_uint256",
        "label": "mapping(uint256 => uint256)",
        "numberOfBytes": "32",
        "value": "t_uint256"
      },
      "t_string_storage": {
        "encoding": "bytes",
        "label": "string",
        "numberOfBytes": "32"
      },
      "t_struct(RoleData)19_storage": {
        "encoding": "inplace",
        "label": "struct AccessControl.RoleData",
        "members": [
          {
            "astId": 16,
            "contract": "contracts/Avatar.sol:Avatar",
            "label": "members",
            "offset": 0,
            "slot": "0",
            "type": "t_mapping(t_address,t_bool)"
          },
          {
            "astId": 18,
            "contract": "contracts/Avatar.sol:Avatar",
            "label": "adminRole",
            "offset": 0,
            "slot": "1",
            "type": "t_bytes32"
          }
        ],
        "numberOfBytes": "64"
      },
      "t_uint256": {
        "encoding": "inplace",
        "label": "uint256",
        "numberOfBytes": "32"
      }
    }
  }
}